:020000040800F2
:10000000B8060020A9010008290300082B030008F6
:100010002F03000833030008370300080000000026
:100020000000000000000000000000003B0300088A
:100030003D030008000000003F03000841030008E2
:10004000C3010008C3010008C301000869030008D8
:10005000C3010008C3010008C3010008C301000870
:10006000C3010008C3010008C3010008C301000860
:10007000C3010008C3010008C3010008C301000850
:10008000C3010008C3010008C3010008C301000840
:10009000C3010008C3010008C3010008C301000830
:1000A000C3010008C3010008C3010008C301000820
:1000B000C3010008C3010008C3010008C301000810
:1000C000C3010008C3010008C3010008C301000800
:1000D000C3010008C3010008C3010008C3010008F0
:1000E000C3010008C3010008C301000800F002F8C2
:1000F00000F04AF80AA090E8000C82448344AAF178
:100100000107DA4501D100F03FF8AFF2090EBAE875
:100110000F0013F0010F18BFFB1A43F0010318473B
:100120009C4B0000BC4B0000103A24BF78C878C13B
:10013000FAD8520724BF30C830C144BF04680C60ED
:10014000704700000023002400250026103A28BF35
:1001500078C1FBD8520728BF30C148BF0B60704739
:10016000662903F07684642901F0BE870020704779
:100170001FB502F009FB04000020002103F04EF837
:10018000E0601FBD10B510BD02F0FEFB1146FFF789
:10019000EFFF00F041F802F01CFC03B4FFF7F2FFA0
:1001A00003BC02F05DFC0000094880470948004795
:1001B000FEE7FEE7FEE7FEE7FEE7FEE7FEE7FEE717
:1001C000FEE7FEE704480549054A064B7047000074
:1001D00089040008ED000008B8000020B8060020DF
:1001E000B8020020B802002010B5002807DA0A077C
:1001F000140E404A00F00F031B1FD45403E00A07FB
:10020000130E3D4A135410BD3C49086000BF3B49E2
:1002100009680029FBD17047394800684FF47A71AA
:10022000B0FBF1F4B4F1807F00D311E024F07F4003
:10023000401E4FF0E02148610F214FF0FF30FFF7E3
:10024000D3FF00204FF0E02188610720086100BF44
:100250000021481EFFF7C8FF00F0C2FB4FF6FF70F9
:1002600000F07DFC00F088FE00F0F6FE00F032FFAA
:100270004FF4A06000F0A6FF224801F0A8FE38E08D
:1002800021480078012834D100F0BAFE064603F078
:1002900077FA044622460B461CA1204801F010FFC5
:1002A0001E49482000F03EFC1D4801681D480068BA
:1002B00003F0D2FA044600F0A3FE0546214603F0FF
:1002C00097FB13D200214FF6FF7000F0E0FE0121F2
:1002D000080200F0DCFEC820FFF796FF00214FF473
:1002E000807000F0D4FEC820FFF78EFF0020064982
:1002F0000870C5E718ED00E000E400E0040000200D
:10030000140000207B51010001000020202020204B
:100310002056313A252E32660000000044000020AD
:10032000080000200C000020704700BFFEE700BF5F
:10033000FEE700BFFEE700BFFEE77047704770476B
:1003400016480068401E1549086015480078401C92
:10035000C0B213490870C82805D10120114908709E
:1003600000200F490870704710B5012001F08EFE83
:1003700098B1012001F09AFE01200B49087008464F
:100380000078012807D101F019FE044600F0DCFED8
:1003900000200549087001F04DFE10BD040000204A
:1003A0001000002001000020000000200CB50020FB
:1003B000019000906B48006840F480306949086003
:1003C00000BF6848006800F4003000900198401CAD
:1003D0000190009818B90198B0F5A06FF1D161486B
:1003E000006810F4003F02D00120009001E00020DE
:1003F00000900098012842D15B48006840F010004E
:10040000594908600846006820F003000860084663
:10041000006840F002000860524840685149486056
:100420000846406848600846406840F4806048607C
:100430000846406820F47C1048600846406840F454
:10044000E81048600846006840F08070086000BF0F
:100450004448006810F0007FFAD04248406820F01D
:100460000300404948600846406840F00200486088
:1004700000BF3C48406800F00C000828F9D10CBDD2
:1004800010B5FFF793FF10BD10B53648006840F077
:100490000100344908600846406834490840314941
:1004A000486008460068324908402E4908600846FE
:1004B000006820F4802008600846406820F4FE00B0
:1004C00048604FF41F008860FFF7DAFF4FF00060CC
:1004D0002849086010BD10B5002100200022214BE2
:1004E0005B6803F00C0121B1042906D0082928D14A
:1004F00007E0214B214C236027E01F4B1F4C23605A
:1005000023E0184B5B6803F47010164B5B6803F430
:100510008032022303EB904022B9194B4343174C1E
:1005200023600DE00F4B5B6813F4003F04D0144BC5
:100530004343124C236003E00F4B43430F4C2360B3
:1005400003E00D4B0D4C236000BF00BF054B5B6803
:10055000C3F303130B4CE15C084B1B68CB40074C07
:10056000236010BD00100240002002400000FFF890
:10057000FFFFF6FE08ED00E000127A0014000020F4
:1005800000093D0018000020002109E0002201E0E0
:10059000531C9AB240F6B8339A42F9DB4B1C99B21D
:1005A0008142F3DB70474FF40072FA4B1A6052102D
:1005B0001A6020221B1F1A60F74AD06020221B1DE0
:1005C0001A601B1F1A60D2001A60F34AD160202201
:1005D0001B1D1A601B1F1A60D2001A60704700B5FD
:1005E00001210020FFF7DFFF4FF47A70FFF7CCFF07
:1005F00000210120FFF7D7FF41F290711020FFF793
:10060000D2FF4FF41C516020FFF7CDFF0121612084
:10061000FFF7C9FF02214620FFF7C5FF48F210018E
:100620001320FFF7C0FF48F2FE011220FFF7BBFFC7
:100630004FF4A0610220FFF7B6FF41F23001032022
:10064000FFF7B1FF40F203313020FFF7ACFF40F27B
:1006500003313120FFF7A7FF40F203313220FFF7CB
:10066000A2FF4FF440713320FFF79DFF0321342098
:10067000FFF799FF40F203313520FFF794FF142173
:100680003620FFF790FF40F203313720FFF78BFF52
:1006900040F203313820FFF786FF40F20331392062
:1006A000FFF781FF4FF440713A20FFF77CFF0321F1
:1006B0003B20FFF778FF40F203313C20FFF773FF48
:1006C0004FF4A0513D20FFF76EFF4FF400719220D0
:1006D000FFF769FF40F203319320FFF764FF40F614
:1006E0000D019020FFF75FFF41F218010320FFF793
:1006F0005AFF40F273110720FFF755FF00BD00B508
:1007000043F20801E320FFF74EFF1221E720FFF735
:100710004AFF41F23121EF20FFF745FF0021012080
:10072000FFF741FF4FF4E0610220FFF73CFF41F289
:1007300030010320FFF737FF00210420FFF733FFCC
:1007400040F207210820FFF72EFF00210920FFF7C4
:100750002AFF00210A20FFF726FF00210C20FFF7C7
:1007600022FF00210D20FFF71EFF00210F20FFF7C1
:100770001AFF00211020FFF716FF07211120FFF7B5
:1007800012FF00211220FFF70EFF00211320FFF7B8
:100790000AFF4FF47A70FFF7F7FE41F290611020E4
:1007A000FFF701FF40F227211120FFF7FCFE322066
:1007B000FFF7EAFE1D211220FFF7F5FE3220FFF7BA
:1007C000E3FE4FF400611320FFF7EDFE1421292012
:1007D000FFF7E9FE0B212B20FFF7E5FE3220FFF7A4
:1007E000D3FE00212020FFF7DEFE00212120FFF7AD
:1007F000DAFE07213020FFF7D6FE40F207713120E4
:10080000FFF7D1FE06213220FFF7CDFE40F2047142
:100810003520FFF7C8FE41F604713620FFF7C3FE0E
:1008200004213720FFF7BFFE00213820FFF7BBFE71
:1008300040F206713920FFF7B6FE40F201713C200C
:10084000FFF7B1FE0F213D20FFF7ADFE0021502044
:10085000FFF7A9FEEF215120FFF7A5FE002152204E
:10086000FFF7A1FE40F23F115320FFF79CFE4FF42B
:100870001C516020FFF797FE01216120FFF793FED6
:1008800000216A20FFF78FFE00218020FFF78BFEFA
:1008900000218120FFF787FE00218220FFF783FEE1
:1008A00000218320FFF77FFE00218420FFF77BFEDD
:1008B00000218520FFF777FE10219020FFF773FEBF
:1008C00000219220FFF76FFE03219320FFF76BFEBC
:1008D0004FF488719520FFF766FE00219720FFF7FF
:1008E00062FE00219820FFF75EFE41F2180103200E
:1008F000FFF759FE40F273110720FFF754FE00BDC9
:1009000008B54FF6FF70ADF8000003208DF8020027
:1009100010208DF8030069461F4800F0ABFF08BDAA
:1009200008B54FF6FF70ADF8000003208DF8020007
:1009300048208DF803006946174800F09BFF08BD6A
:1009400070B504464FF4007012490860401008600A
:100950002020091F08601048C4602020091D08607D
:10096000091F0860C0000860FFF7DAFF4FF48060DD
:10097000084908600848806885B20815091F0860A2
:10098000FFF7BEFF4FF400700249091F08602846B8
:1009900070BD0000140C01400010014008B5012199
:1009A000182001F083FA0121202001F07FFA4FF492
:1009B000E460ADF8000001208DF8020010208DF8F1
:1009C00003006946F84800F055FFFFF799FFF64825
:1009D0001030006840F4C460F3491031086008BD6D
:1009E00010B5FFF7DBFF0020FFF7AAFFEF490880F3
:1009F00008460088A0F50241303902D1FFF7EFFD2B
:100A000001E0FFF77CFE0020FFF79AFFE74908802E
:100A100010BD01B5BDF80000E549088008BD01B56D
:100A2000BDF80000E349088008BD30B504460D4616
:100A300021462020FFF7B7FD29462120FFF7B3FD0F
:100A400030BD4FF40071D84A143211604910121FA2
:100A5000116020211160D849C8602021121D116049
:100A6000121F1160C90011604900116070474FF4F6
:100A70000070CD4914310860401008602020091F23
:100A800008602220CC49C8602020C7491431086082
:100A9000091F0860C00008604000086070472DE929
:100AA000F04306468946174600240025A046B04676
:100AB00049464046FFF7B9FF00BF1EE0FFF7D7FFEA
:100AC00000250FE037F814000121A940084204D1A5
:100AD000B8480088FFF7B5FF03E0B5480088FFF786
:100AE000B0FF6D1C102DEDD308F1010000F0FF08E0
:100AF00049464046FFF799FF641C182CDED3BDE839
:100B0000F08370B505460E461446A4F12000C4B229
:100B100004EB4400A94901EB001231462846FFF7D7
:100B2000BEFF70BDF0B507460C46002540F23F16EB
:100B300009E0227831463846FFF7E3FFA6F11000BE
:100B400086B2641C6D1C207808B1142DF1D3F0BD61
:100B500010B504469AA12046FFF7E4FF10BD30B55A
:100B60000546002400210846FFF75FFFFFF77FFFDF
:100B700000BF03E02846FFF764FF641CB4F5963F0E
:100B8000F8D330BDF0B504460D4616461F46B442B4
:100B900006DBA01B401C81B25020FFF704FD03E0E0
:100BA00000215020FFF7FFFC21465120FFF7FBFCFE
:100BB000BD4206DBE81B401C81B25220FFF7F3FC6C
:100BC00003E000215220FFF7EEFC29465320FFF7F7
:100BD000EAFC29462046FFF728FFF0BD00B54FF498
:100BE000A073F022591EEF20FFF7CCFF41F218014D
:100BF0000320FFF7D8FC00BD2DE9F04106468846EA
:100C000015461F46002441463046FFF70EFF5FB9E8
:100C1000FFF72DFF00BF04E065480088FFF711FFD4
:100C2000641CAC42F8D310E000240CE0FFF71FFF77
:100C30005F480088FFF705FF701CC6B2414630468A
:100C4000FFF7F3FE641CAC42F0D3BDE8F081F0B5D1
:100C500005460E4617461C460023224631462846C6
:100C6000FFF7CAFFE919C8B2002322463146FFF751
:100C7000C3FF01233A4631462846FFF7BDFF301B2C
:100C8000401C81B201233A462846FFF7B5FFF0BD6C
:100C90002DE9F04306460F4690460320A0EB480995
:100CA000002445466EE07A1991B23219D0B2FFF7AE
:100CB000BCFEFFF7DCFE3E480088FFF7C2FE7A1B51
:100CC00091B23219D0B2FFF7B0FEFFF7D0FE38482C
:100CD0000088FFF7B6FE7A1991B2321BD0B2FFF747
:100CE000A4FEFFF7C4FE32480088FFF7AAFE7A1B75
:100CF00091B2321BD0B2FFF798FEFFF7B8FE2C4836
:100D00000088FFF79EFE3A1991B27219D0B2FFF730
:100D10008CFEFFF7ACFE26480088FFF792FE3A1BD8
:100D200091B27219D0B2FFF780FEFFF7A0FE204803
:100D30000088FFF786FE3A1991B2721BD0B2FFF716
:100D400074FEFFF794FE1A480088FFF77AFE3A1BFC
:100D500091B2721BD0B2FFF768FEFFF788FE14480D
:100D60000088FFF76EFEB9F1000F04DA062000EBF1
:100D70008400814405E0601B0A2101EB800081446E
:100D80006D1E641CAC428ED9BDE8F08370B506467A
:100D90000024002540F23F110020FFF746FEFFF738
:100DA00066FE00BF2DE00000000C01402C0000207A
:100DB000280000202A00002000100140563A0008B8
:100DC0002020202020202020202020202020202023
:100DD000202020200000000000250FE056F824000D
:100DE0000121A940084204D15F480088FFF729FE8D
:100DF00003E05E480088FFF724FE6D1C202DEDD334
:100E0000641CB4F5166FE7D370BD70B504460025B9
:100E100000266688A08846EA00466589A08945EADA
:100E20000045701B46082C4441F208010320FFF7DF
:100E3000BAFBFFF71CFE002504E02088FFF701FE47
:100E4000A41C6D1CB542F8D341F218010320FFF732
:100E5000AAFB70BD10B54FF4007045490860401002
:100E600008602020091F086022204249C860202015
:100E70003F490860091F0860C0000860FFF750FD87
:100E80004FF480603A4908603A48806884B2081597
:100E9000091F0860FFF734FD4FF400703449091F43
:100EA0000860204610BD00B500211020FFF77BFB35
:100EB00000211120FFF777FB00211220FFF773FBC1
:100EC00000211320FFF76FFB1420FFF75DFB41F2B9
:100ED000B0711020FFF767FB40F237111120FFF7C8
:100EE00062FB0520FFF750FB40F239111220FFF79B
:100EF0005AFB0520FFF748FB4FF4E8511320FFF79A
:100F000052FB13212920FFF74EFB0520FFF73CFB86
:100F100040F273110720FFF746FB00BD00B540F219
:100F200073110720FFF73FFB00BD00B5002107202C
:100F3000FFF739FB00BD30B5054600210846FFF735
:100F400074FDFFF794FD002409E015F814206100FA
:100F5000491C695C42EA0120FFF773FD641CB4F58B
:100F6000963FF2DB30BD00002A0000202800002060
:100F7000140C01400010014000B587B00121082089
:100F800000F094FF0121480200F090FF00208DF84E
:100F900007000120ADF8040001A92B4800F06AFC0D
:100FA000002002908DF80C008DF80D004FF46020A9
:100FB00004900020059001208DF8180002A9234814
:100FC00000F095F9022301220821204800F027FAB9
:100FD00001211E4800F0B7F91C4800F0D6F900BF07
:100FE0001A4800F0D7F90028FAD1184800F0DCF9C7
:100FF00000BF164800F0DDF90028FAD107B000BDA7
:101000002DE9F05F4FF0000A0121104800F0DBF9F4
:101010000520FFF7F9F80D4800F068FA834602F062
:101020009DFA80464FF06632094B02F0ABFA064655
:101030000022084B02F03AF9044602F005F9824614
:101040005046BDE8F09F0000000C01400024014024
:1010500066660A4000FEAF4008B50121102000F08E
:1010600025FF10208DF803004FF47F40ADF80000FD
:1010700003208DF802006946144800F0FBFB0420B1
:10108000ADF800006946124800F0F4FB08BD70B5E9
:1010900004460D4665B921460C4800F096FC042133
:1010A0000B4800F092FC0421094800F090FC0BE092
:1010B0002146064800F08BFC0421054800F085FC21
:1010C0000421034800F083FC70BD000000100140C3
:1010D0000014014008B503208DF8000000208DF8B1
:1010E00001008DF8020001208DF80300684600F031
:1010F0006EF801214FF0C05000F0E5FE012000F035
:1011000010FD00F0F5FA012000F056FE00BF61204E
:1011100000F0A5FD0028FAD04FF4007000F04FFE5B
:10112000012000F052FE00F08DFF00F083FF01214E
:10113000084600F023FF00F07DFF49F6404000F034
:1011400053FF00F077FF08BDF0B587B004464FF4B9
:101150006160B4FBF0F0C5B24FF46160B4FBF0F134
:1011600000FB11403C21B0FBF1F0C6B24FF46160CE
:10117000B4FBF0F100FB11403C21B0FBF1F201FBAC
:10118000120733462A4608A102A8009700F098FFEC
:1011900002A99020FFF7C6FC00214FF6FF70FFF771
:1011A00076FF07B0F0BD00002020202020543A2513
:1011B0002E32642D252E32642D252E3264202020DF
:1011C0002020000031490143314A1160704770B559
:1011D000002100230F22C4780CB32D4C246804F4A2
:1011E000E064C4F5E064210AC1F10403CA40447814
:1011F00004FA03F18478144021430901254C067850
:10120000A155047804F01F050124AC4005786D1148
:101210004FF0E02606EB8505C5F8004109E00478AB
:1012200004F01F050124AC401B4D0678761145F8EB
:10123000264070BD194A0A400243154B1B1F1A6015
:10124000704739B1124A121D12680243104B1B1D20
:101250001A6006E00E4A121D126882430C4B1B1DD9
:101260001A607047042808D14FF0E021096941F065
:1012700004014FF0E022116107E04FF0E02109691D
:1012800021F004014FF0E022116170470000FA05DF
:101290000CED00E000E400E080E100E080FFFF1FD3
:1012A00010B50446FA48844208D10121401500F0E7
:1012B00017FE0021601500F013FE17E0F548844288
:1012C00008D10121001500F00BFE0021201500F0CF
:1012D00007FE0BE0F048844208D10121C80300F06A
:1012E000FFFD00214FF4004000F0FAFD10BD30B5C5
:1012F0000246002000235068E84C20400D790C681D
:1013000044EA0524204350609068E54C2040D1E930
:1013100002542C434D7944EA450420439060D06A3E
:1013200020F470000C7C641EE4B2234340EA0350B6
:10133000D06230BD00210160017141718160C160E6
:1013400001210174704721B1826842F0010282607C
:1013500003E0826822F001028260704721B1826856
:1013600042F48072826003E0826822F480728260BC
:10137000704710B50023CBB21AB144681C434460D7
:1013800002E044689C43446010BD816841F008015C
:1013900081607047014600208A6812F0080F01D072
:1013A000012000E000207047816841F00401816065
:1013B0007047014600208A6812F0040F01D0012016
:1013C00000E00020704721B1826842F4A0028260F0
:1013D00003E0826822F4A002826070470146002088
:1013E0008A6812F4800F01D0012000E000207047CD
:1013F00010B50A4600210023416821F46041531EC4
:1014000041EA4331416010BD21B1426842F40062BB
:10141000426003E0426822F4006242607047F0B527
:1014200004460D4600200021092D11DDE068A5F1DC
:101430000A0606EB4607072606FA07F18843A5F1D8
:101440000A0606EB460603FA06F10843E0600CE0E4
:10145000206905EB4507072606FA07F1884305EBE7
:10146000450603FA06F108432061072A0FDA606B8C
:10147000561E06EB86071F2606FA07F18843561EFE
:1014800006EB860605FA06F10843606322E00D2AA2
:101490000FDA206BD61F06EB86071F2606FA07F128
:1014A0008843D61F06EB860605FA06F1084320633B
:1014B00010E0E06AA2F10D0606EB86071F2606FA89
:1014C00007F18843A2F10D0606EB860605FA06F140
:1014D0000843E062F0BD21B1826842F4801282606C
:1014E00003E0826822F48012826070470146C86C73
:1014F00080B2704766484C300068704721B142683E
:1015000042F48062426003E0426822F480624260FA
:10151000704721B1426842F48052426003E0426861
:1015200022F48052426070470A460021816821F40B
:10153000E04111438160704721B1826842F400426A
:10154000826003E0826822F400428260704721B129
:10155000826842F40212826003E0826822F402127E
:1015600082607047014600208A6812F4001F01D093
:10157000012000E000207047F0B504461546002029
:1015800000220026092911DDE068A1F10A0707EB16
:10159000470C072707FA0CF29043A1F10A0707EB63
:1015A000470703FA07F21043E0600CE0206901EB03
:1015B000410C072707FA0CF2904301EB410703FAAD
:1015C00007F210432061A06BC0F30156EF1C06F137
:1015D000010CA7EB0C0707EB870C1F2707FA0CF28F
:1015E0009043EF1C06F1010CA7EB0C0707EB8707F4
:1015F00001FA07F21043A063F0BD10B50A460021BE
:101600000023816B21F44011531E41EA0351816391
:1016100010BD08B5002300930090009B0B4400937D
:10162000009B1A6008BD08B5024600200090009299
:1016300001F12800009B184400900098006880B2D7
:1016400008BD0A4600214168164B1940114341600C
:1016500070474162826270470A460021416821F06A
:101660001F0111434160704740B1094908310968C1
:1016700041F40001064A0832116007E004490831CC
:10168000096821F40001024A083211607047000025
:101690000024014000280140003C0140FFFEF0FF13
:1016A000FDF7F1FFFFFD3FFF0246002013680B42EC
:1016B00001D0012000E000207047CA43026070475B
:1016C00070B502460020002300240B125568CEB2EC
:1016D00005EA060415681D4202D00CB1012000E0A5
:1016E000002070BD00220A12D3430360704700003F
:1016F00010B5012000F00EFC002000F00BFC10BD26
:101700002A49086070472949091F0860704727491E
:1017100084310860704701460020254A10884FF642
:101720007F4210400843224A108070470146002043
:101730001F4A10884FF68072104008431C4A1080E0
:10174000704708B500220092194A2C3A0092009A7C
:1017500002440092009A116008BD08B501460020BD
:10176000009013482C38009000980844009000988E
:10177000008808BD0D489C300068C0B270470C4816
:101780000830008840F0010009490831088070479E
:101790000648A0300068C0B270470548083000888D
:1017A00040F00200024908310880704704860D426B
:1017B0002C6C004010B50446CA48844208D101216F
:1017C000042000F08DFB0021042000F089FB46E09E
:1017D000C548844208D10121082000F081FB002186
:1017E000082000F07DFB3AE0C048844208D1012186
:1017F000102000F075FB0021102000F071FB2EE09E
:10180000BB48844208D10121202000F069FB00215F
:10181000202000F065FB22E0B648844208D1012177
:10182000402000F05DFB0021402000F059FB16E055
:10183000B148844208D10121802000F051FB0021F1
:10184000802000F04DFB0AE0AC48844207D1012122
:10185000801500F045FB0021A01500F041FB10BDF4
:1018600010B50121084600F03BFB0021012000F0EB
:1018700037FB10BD2DE9F04102460025002600206F
:1018800000230024002791F803C00CF00F0591F805
:1018900003C01CF0100F03D091F802C04CEA0505FC
:1018A00091F800C0BCF1000F31D0146800202BE08B
:1018B0004FF0010C0CFA00F3B1F800C00CEA03067B
:1018C0009E4220D183004FF00F0C0CFA03F7BC436B
:1018D00005FA03FC4CEA040491F803C0BCF1280F9C
:1018E00006D14FF0010C0CFA00FCC2F814C00AE05B
:1018F00091F803C0BCF1480F05D14FF0010C0CFA70
:1019000000FCC2F810C0401C0828D1D31460B1F804
:1019100000C0BCF1FF0F34DD546800202EE000F160
:10192000080C4FF0010808FA0CF3B1F800C00CEAFB
:1019300003069E4221D183004FF00F0C0CFA03F7EF
:10194000BC4305FA03FC4CEA040491F803C0BCF163
:10195000280F05D100F1080C08FA0CF8C2F8148021
:1019600091F803C0BCF1480F07D100F1080C4FF00B
:10197000010808FA0CF8C2F81080401C0828CED3E1
:101980005460BDE8F0814FF6FF7101800221817043
:101990000421C17070470246002093680B4201D0B9
:1019A000012000E0002070470146886880B270473F
:1019B00002460020D3680B4201D0012000E0002045
:1019C00070470146C86880B2704701617047416145
:1019D00070470AB1016100E041617047C160704722
:1019E0004FF480320A438261816182618269826937
:1019F000704702460020424B18684FF6807318402B
:101A000040EA021008433E4B186070473D49C861E8
:101A10007047F0B50A46002300240021002500F09D
:101A20000046B6F1004F02D1354EF16901E0344E67
:101A30007168C0F3034583B200F44016B6F5401F49
:101A400008D121F070612E4E766826F070662C4F1A
:101A50007E6012E000F48016B6F5801F06D10326E2
:101A600006FA05F4A14341F0706106E0460D360127
:101A700003FA06F6B14341F0706122B1460D36011A
:101A800003FA06F6314300F00046B6F1004F02D1EA
:101A90001B4EF16101E01A4E7160F0BD30B50022BD
:101AA0008B071C0F0F2303FA04F2154B08338C101D
:101AB00053F824309343124C08348D1044F82530E9
:101AC00023468C1053F824308C07240F00FA04F4BA
:101AD00023430B4C08348D1044F8253030BD0A499F
:101AE0000860704700080140000C014000100140F0
:101AF0000014014000180140001C0140002001407A
:101B00000000014000002042DC00204210B501210D
:101B1000080700F0F2F900214FF0805000F0EDF9D5
:101B200010BD29490862704727490861704701467E
:101B30000020264A106820F0E0000843106070473B
:101B400023490860704710B5024600201F4B1868F3
:101B500020F00300104318601E4B1B6843F0040381
:101B60001C4C2360012901D130BF00E020BF194B7C
:101B70001B6823F00403174C236010BD1348006852
:101B800040F00400114908600846006840F0020077
:101B900008601048006840F004000E49086000BF6B
:101BA00000BF30BF704701460020084A52680A4211
:101BB00001D0012000E0002070470449096841EA93
:101BC0008001024A1160704700000E420070004020
:101BD000A0000E4210ED00E0DD48006840F001007A
:101BE000DB49086008464068DA490840D84948603F
:101BF00008460068D8490840D5490860084600688A
:101C000020F4802008600846406820F4FE00486008
:101C10004FF41F0088607047CD49096821F4803176
:101C2000CB4A11601146096821F480211160B0F59A
:101C3000803F03D0B0F5802F0ED106E0C44909687B
:101C400041F48031C24A116007E0C149096841F49A
:101C5000A021BF4A116000E000BF00BF704710B56F
:101C600001460022002300204A11012A02D1B84C6B
:101C7000236806E0022A02D1B54C236A01E0B44C85
:101C8000636A01F01F02012494401C4201D001202C
:101C900000E0002010BD38B5002000900024002591
:101CA00000BF3120FFF7DBFF05460098401C009085
:101CB0000098B0F5A06F01D0002DF2D03120FFF7D1
:101CC000CEFF08B1012400E00024204638BD0146C3
:101CD00000209F4A106820F0F80040EAC100106020
:101CE00070479E490860704702460020984B58682C
:101CF00020F47C1042EA01031843954B586070476A
:101D000096490866704701460020914A506820F0C5
:101D100003000843506070478D48406800F00C0095
:101D20007047014600208A4A506820F0F0000843BE
:101D30005060704701460020854A506820F4E060FA
:101D400008435060704701460020814A506820F4E3
:101D5000605040EAC1005060704729B17C4A527A15
:101D600002437B4B5A7204E0794A527A8243784BA1
:101D70005A7270477A490860704701460020744AD9
:101D8000506820F440400843506070470021754A75
:101D900011706F4A82F82010012802D0042808D15F
:101DA00003E001216F4A117004E005216D4A1170B2
:101DB00000E000BF00BF70476B490860704764498E
:101DC000096A0143624A11627047674944390860F1
:101DD000704730B500210022002400235C4D6D685F
:101DE00005F00C0121B1042905D0082923D105E013
:101DF0005E4D056022E05D4D05601FE0544D6D684D
:101E000005F47012524D6D6805F48034022505EB1F
:101E100092421CB9564D554305600BE04C4D6D6820
:101E200015F4003F03D0524D5543056002E04F4D7D
:101E30005543056002E04D4D056000BF00BF444DB5
:101E40006D6805F0F00109094A4D6B5C0568DD40DD
:101E500045603F4D6D6805F4E061090A454D6B5CD6
:101E60004568DD4085603A4D6D6805F46051C90AEA
:101E7000404D6B5C4568DD40C560354D6D6805F4CF
:101E80004041890B3C4D6B5CC568B5FBF3F50561C2
:101E900030BD29B12E4A526902432D4B5A6104E0EC
:101EA0002B4A526982432A4B5A61704729B1284A0A
:101EB00092690243264B9A6104E0254A9269824363
:101EC000234B9A61704729B1214AD2690243204BC2
:101ED000DA6104E01E4AD26982431D4BDA61704721
:101EE00029B11B4AD2680243194BDA6004E0184A50
:101EF000D2688243164BDA60704729B1144A1269DE
:101F00000243134B1A6104E0114A12698243104BD9
:101F10001A61704714494039086070470F49C86416
:101F200070470B49C87170470948406A40F080709B
:101F300007494862704701460020054A92680A42F4
:101F400001D0012000E000207047014988727047ED
:101F5000001002400000FFF8FFFFF6FE00004242C2
:101F6000D8004242201002408004424200127A000F
:101F700000093D002E0000203E00002029B14F4AFC
:101F8000128802434D4B1A8004E04C4A1288824367
:101F90004A4B1A8070474948001D008840F01000E5
:101FA0004649091D088070474448001D00884FF6C7
:101FB000EF7108404149091D0880704700213F48E2
:101FC0001C300188001F008841EA0040704700B5BE
:101FD0000246FFF7E0FF100C384918310880091D50
:101FE0000A80FFF7E1FF00BD00B50246FFF7D3FF0F
:101FF000C2F30340314908310880091D0A80FFF708
:10200000D3FF00BD00B50246FFF7C5FF100C2B49FA
:1020100020310880091D0A80FFF7C6FF00BD00209F
:102020002649103109880907080B24491431098809
:102030000843704700BF2148001D008810F0200FA2
:10204000F9D070471D48001D00884FF6F771084011
:102050001A49091D088000BF1848001D008810F0AB
:10206000080FF9D0704701460020144A121D12884B
:102070000A4201D0012000E0002070470F49091DED
:10208000098881430D4A121D1180704701460020C6
:102090000A4A121D12880A40D0B2084A12880A421F
:1020A00002D008B1012000E0002070470349091D5B
:1020B00009888143014A121D1180704700280040A1
:1020C0000FB41CB5074B06AA7B44694600900598DF
:1020D00000F041FB0020694600F050FB1CBC5DF89D
:1020E00014FB0000B10600002DE9F0410646002473
:1020F00010687529314616A511D0AFF3008000286D
:1021000003DAC0F1000013A507E031688A0701D5A2
:1021100011A502E0490704D510A5012401E0AFF3A1
:10212000008000210A2306F1240707E0B0FBF3F248
:1021300003FB1200303078541046491C0028F5D1BA
:1021400023462A463046BDE8F04100F093B800002F
:10215000000000002D0000002B0000002000000007
:102160002DE9F0474FF0000A89460446C0F820A048
:102170002046E1688847002876D0252806D0D4E993
:1021800001219047206A401C2062F1E7E168204667
:1021900000258847C4F81CA006460027C4F818A0EC
:1021A0002A2E09D0304601F031F838B304EB870805
:1021B000303EC8F8186019E059F8041B204604EBBB
:1021C00087029161E1688847012F064618D1E069CE
:1021D000002820DA25F020051DE0D8F8180000EBD3
:1021E000800006EB40003038C8F818002046E1684F
:1021F0008847064601F00AF80028EED1012F0AD0E0
:102200002E2E08D12046E16888477F1C0646022F03
:1022100045F02005C4DBA069002803DA404245F000
:102220000105A061E80701D025F01005B6B1A6F1BF
:102230004100192802D8203645F400654A46314647
:10224000204625604D46FDF78BFF58B1012806D08A
:10225000ED1D25F0070000F1080989E704E005F10C
:10226000040985E730468AE7206ABDE8F0877047B1
:10227000704770472DE9F0470D469946924604464F
:1022800000F124080168880604D5E06921F01001F6
:10229000216000E00120A84202DDA0EB050700E07C
:1022A0000027A16907EB050202EB0900A1EB000082
:1022B000A0612078C00602D42046AFF3008000263B
:1022C00008E0D4E901211AF806009047206A401C72
:1022D000761C20624E45F4DB2078C0060AD52046E5
:1022E000AFF3008006E0D4E9012130209047206A56
:1022F000401C2062381EA7F10107F4DC07E0D4E996
:10230000012118F805009047206A401C2062281E11
:10231000A5F10105F3DC2046AFF30080207800062C
:1023200002D50220BDE8F0870120FBE770472DE9C8
:10233000FF4F0C461E464FF0FF378BB0D2E900012D
:10234000DDF860800A908A46C1F30A5505B93D461A
:10235000002108464FF00000BAF1000F00F44000E1
:1023600005DA00EB80004FF4400101EA50004FEA2B
:102370009059B9F1010F00DDB9460A9850EA4A00B8
:102380000ED044F61050A5F2FF3545432F14B8F196
:10239000000F1ED07542291E1EDDC9F100021CE08F
:1023A000B8F1010F4FF0000001D0302103E0F243FB
:1023B00005E02154401CB042FBDB304600220021E6
:1023C00021540B99C1F80880C1E900200FB0BDE885
:1023D000F08FBD1B6D1CDEE74A4600DA694206A895
:1023E00000F05CFA06AB07CB03AB07C350460A9973
:1023F00000F03DFB8DE80700A0F500501F3800906D
:102400000398002D09DD42F21F014A46084403A942
:102410000390684600F09CFD08E0A0F500504A4695
:102420001F3803A90390684600F0A6FD8DE8070059
:102430000004000C03D04FF0FF30410800E01046CC
:10244000B8F1000F03D00022009215461FE0751E60
:1024500006D400F09DF902F1300262556D1EF8D5E8
:10246000B3460122084302D000227F1C04E02078FA
:10247000302801D100227F1E002A099787D01DE055
:10248000112D07DA00F084F9303262556D1C50EAE4
:102490000102F5D108430FD10021681E05E0235C3D
:1024A000625C6354491C2254401E8142F7DBAB46F8
:1024B000A81B401E099001E0009848B1002004F8D4
:1024C0000B000B98099AC0F80880C0E9002B7DE743
:1024D00011264FF000085AE72DE9F04F88460446D0
:1024E000D21D22F0070191B0D1E90001CDE90A0126
:1024F00000F078FE02460B98C00F01D02D2007E0B7
:102500002068810701D52B2002E0202101EAC000CC
:10251000032A099001D0072A05DB034641462046DD
:1025200000F07CF90FE12078800601D5E06900E039
:102530000620B8F1650F814606D0B8F1660F18D0B5
:10254000B8F1670F72D132E00020B9F1110F00909D
:1025500001DB112301E009F101030AAA01A90CA87A
:10256000FFF7E5FEDDE90C70002609F10105834661
:1025700048E001204B4600904FF000470AAA01A90D
:102580000CA8FFF7D4FEDDE90DB00C995D460026DE
:1025900018B909F1010001EB0005B9EB050003D4FE
:1025A000C0F1FF3609F10105A5EB09002BE0B9F1F7
:1025B000010F01DA4FF001090020B9F1110F00906D
:1025C000484601DD112300E003460AAA01A90CA830
:1025D000FFF7ADFEDDE90C704D46002683462078FE
:1025E00000070AD4AB4500DA5D4601A8012D04DDE1
:1025F000411911F8011C302907D04F4502DA17F1B3
:10260000040F04DA0120824610E06D1EEEE7002F71
:1026100002DCED1B3E4403E0781CA84200DD0546C9
:10262000A7EB060000F1010A4FF0004720780007F1
:1026300003D4AA4501DB4FF0FF3A0021B7F1004F68
:102640000DF143088DF8431023D002202B23002FD7
:1026500001DA7F422D234FF00A0C011EA0F1010088
:1026600000DC4FB197FBFCF10CFB11720F4602F13D
:10267000300208F8012DF0E7A8F10100037021886D
:10268000090501D5452100E06521A0F1010800F808
:10269000011C09980FA9A1EB080707F1070700B172
:1026A000012000EB050101EBEA70A1693844A1EBC0
:1026B0000000A0F10100A0612078C00602D42046ED
:1026C000AFF30080099830B1D4E901219047206A26
:1026D00000F1010020622078C00620D52046AFF32B
:1026E00000801CE0002E04DBB34502DD01A8805D04
:1026F00000E03020D4E901219047206A761C401C7C
:10270000BAF1010A20620AD100F03EF8C0680168FF
:10271000405CD4E901219047206A401C2062281EB9
:10272000A5F10105DEDC07E0D4E9012118F8010B71
:102730009047206A401C2062381EA7F10107F3DC95
:102740002046AFF30080022011B040E601694A1C28
:1027500002610878704700B58FB0CDE901310021E2
:10276000059105497944CDE9031011466846FFF704
:10277000F7FC0FB000BD0000E5FFFFFF0A6802F89C
:10278000010B0A6070470000004870477800002085
:1027900030B5B0F10A024FEA900E71F100034EEA33
:1027A000817EB0EB0E0061EB91014FEA101E4EEA04
:1027B000017E10EB0E0041EB11114FEA102E4EEA94
:1027C000016E10EB0E0041EB11214FEA104E4EEA64
:1027D000014E10EB0E0041EB1141401841F1000198
:1027E0004FEAD00040EA41704FEAD10110EB80057A
:1027F0004FEA810444EA907444EB01046D1944EB00
:102800000404521BA3414FF0000348BF0A3200D515
:1028100030BD401C41F1000130BD00002DE9F04108
:102820001F46044603260168072A01F4006004DB02
:1028300008B116A505E016A503E008B115A500E04E
:1028400015A521F010002060A069C01EA0610FB185
:10285000401EA0612046AFF300804FB1D4E90121B2
:1028600038469047206A401C2062C01C206206E067
:10287000206AFAE7D4E9012115F8010B9047761E8A
:10288000F8D22046AFF30080BDE8F0814E414E0003
:102890006E616E00494E4600696E66002DE9F04794
:1028A000814616468AB035487844D0E900238068CE
:1028B0000092CDE90130314878440C38D0E9022348
:1028C000006903924FF03702CDE9043041F69B30A6
:1028D000014491FBF2F0A0F1800502FB10141B3CB7
:1028E00002D56442012000E00020DFF890A080467D
:1028F0000027FA44AAF1C60A0DE0E00709D03246E3
:10290000684607EB47010AEB810100F035FB8DE8D3
:10291000070064107F1C002CEFD1184F7F44B43F98
:1029200017E0E80713D007EB04100DF1180A90E840
:102930000E00AAE80E00C068F04201D19819089074
:10294000324606A903A800F017FB03AB07C36D10BE
:10295000641C002DE5D132466946B8F1000F03A88A
:1029600002D000F0F5FA01E000F006FBC9E9000131
:10297000C9F808200AB0BDE8F0870000F82300007D
:1029800000487047580000207546FFF7F9FFAE4633
:1029900005006946534620F00700854618B020B56B
:1029A000FDF710FCBDE820404FF000064FF0000797
:1029B0004FF000084FF0000B21F00701AC46ACE8E7
:1029C000C009ACE8C009ACE8C009ACE8C0098D4654
:1029D00070470446AFF300802046FDF7DEFB0000A1
:1029E0004FF0013C50F8042B51F8043B9A4221D19E
:1029F000A2EB0C03934313EACC1317D150F8042B2A
:102A000051F8043B9A4215D1A2EB0C03934313EA0D
:102A1000CC130BD150F8042B51F8043B9A4209D146
:102A2000A2EB0C03934313EACC13DBD04FF000006E
:102A3000704700BFD01A01BAB1FA81F101F0180154
:102A400022FA01F0CB40C1F12001DBB2C0B2C01AC2
:102A50002CFA01F3D11A914311EAC311E6D1704760
:102A600001491820ABBEFEE72600020070475FEA6E
:102A7000400C08BF91F0000F4FEA8C234FEAC122AF
:102A800043EA51514FEA1C5018BF00F5F0404FEA9D
:102A9000300018BF41F000415FEA6C5C00F0298013
:102AA000BCF1FF3F08BF40F080407047130C06BFE9
:102AB00012044FF0100C4FF0000C130E04BF120262
:102AC0000CF1080C130F04BF12010CF1040C930F4E
:102AD00004BF92000CF1020CD30F04BF52000CF1A2
:102AE000010C11464FF00002A0F11F00A0EB0C00FA
:102AF000704711F0004F08BF704731F000413FF4BC
:102B0000D5AF0B0C06BF09044FF0100C4FF0000CB2
:102B10000B0E04BF09020CF1080C0B0F04BF0901D6
:102B20000CF1040C8B0F04BF89000CF1020CCB0FCD
:102B300004BF49000CF1010CCCF12003A0EB0C0008
:102B400022FA03F302FA0CF241EA030100F1010058
:102B5000704720F07F4C80EA030023F07F47ACEB06
:102B6000070303F57C5300F0004003F1FF032DE958
:102B700080494FEA154B09B44FEA144325EA0B4E3E
:102B800024EA03480FF2042606EB132749083E788F
:102B90005FEA320203FB0667C7F5000707FB06F68C
:102BA0004FEA54374FEAD64606F1020607FB066C99
:102BB000CCF1005C4FEA1C472CEA074C07FB06F4FB
:102BC0000CFB06F504EB15464FEA961634BF0020C1
:102BD0004FF000404FEAD13706FB07FC4FEA1C4C90
:102BE0000CFB0BF7D21B03FB0CF761EB07010CFB93
:102BF0000EF7B0EB074072EB17420CFB08F734BF3F
:102C0000A2EB0742B2EB074261EB17414FEA0C44DB
:102C10004FEA910706FB07FC4FEA1C4C0CFB0BF735
:102C2000B0EBC74072EB573203FB0CF734BFA2EB9B
:102C3000C742B2EBC74261EB57310CFB0EF7B0EB6A
:102C4000C70072EB57720CFB08F734BFA2EBC70248
:102C5000B2EBC70261EB5771039F4FEA816141EA12
:102C6000921104EBCC044FEAD1374FEA826206FBA3
:102C700007FC42EA90124FEA80604FEA1C4C0CFBC2
:102C80000BF7D21B03FB0CF761EB07010CFB0EF7F4
:102C9000B0EB074072EB17420CFB08F734BFA2EB16
:102CA0000742B2EB074261EB17414FEA8C554FEAFE
:102CB000910704EB9C2406FB07FC4FEA1C4C0CFB21
:102CC0000BF7B0EBC74072EB573203FB0CF734BF86
:102CD000A2EBC742B2EBC74261EB57310CFB0EF7D8
:102CE000B0EBC70072EB57720CFB08F734BFA2EBD6
:102CF000C702B2EBC70261EB577115EB4C254FEAE7
:102D0000816141EA92114FEA82624FEAD13742EA89
:102D1000901206FB07FC44F100044FEA80604FEA82
:102D20001C4C0CFB0BF7D21B03FB0CF761EB0701F0
:102D30000CFB0EF7B0EB074072EB17420CFB08F7E9
:102D400034BFA2EB0742B2EB074261EB174115EB30
:102D50001C154FEA813141EA92414FEA823242EA40
:102D600090424FEA80304FEA0C7644F1000448EA82
:102D700003434EEA0B484FF0000EB2EB080C71EB28
:102D8000030724BF624639464EEB0E0E4FF0000B90
:102D90000018524149414BEB0B0BB2EB080C71EBA5
:102DA00003077BF1000B24BF624639464EEB0E0E43
:102DB0004FF0000B0018524149414BEB0B0BB2EBAB
:102DC000080C71EB03077BF1000B24BF6246394608
:102DD0004EEB0E0E51EA020718BF46F0010616EB45
:102DE0000E7655F1000254F1000103D5BDE88901CA
:102DF000BDE80088BDE88901BDE80048B619524128
:102E000041EB0101A3F10103704780807F7E7D7C4F
:102E10007B7A7978777676757473727171706F6E6C
:102E20006E6D6C6C6B6A6A69686867666665646417
:102E3000636362616160605F5F5E5E5D5D5C5C5BA1
:102E40005B5A5A5959585857575656555555545410
:102E5000535352525251515050504F4F4F4E4E4D6E
:102E60004D4D4C4C4C4B4B4B4A4A4A4949494848BA
:102E700048474747474646464545454444444443FA
:102E800043434342424242414141002B26D4770012
:102E900021D01CB54FEA370703B44FF010004FF0B4
:102EA00010014FF000000FBCBDE810400BF1010B0A
:102EB000BBF1010F08BF5FEA170722BF12F1010241
:102EC00011F101014FF0004143F1000300F0004017
:102ED00043EA00007047F9D35708DAE746EA0646A6
:102EE00013F1400F4FEA16461FDD13F1200FDFBF2D
:102EF00016430A46002120335B42C8D0C3F12007A5
:102F000046EA064602FA07F74FEA164646EA070679
:102F1000C3F1200722FA03F201FA07F721FA03F1BD
:102F20004FF0000342EA0702B1E746EA020646EA2A
:102F300006464FEA164646EA0106BCBF46EA064682
:102F4000360C4FF000034FF000024FF000019EE7F7
:102F50002DE9C048934630B491E8380007C831EAFB
:102F6000400C48BF34EA430C03D5FFF7F2FDFFF7EE
:102F70008CFFF0BCBDE800882DE9C048934630B412
:102F800091E8380007C810F0804F08BF13F0804F59
:102F900003D100F005F8FFF778FFF0BCBDE800882A
:102FA00020F07F4780EA030023F07F4C07EB0C03FF
:102FB000A3F57C5300F00040A3F1FE0392F0000F54
:102FC00000F0B38095F0000F00F077802DE9014903
:102FD0004FEA11404FEA144621EA004800FB06FC84
:102FE00024EA064708FB06F607FB08F800FB07F78C
:102FF00018EB06484CEB164C4FEA124B18EB0748FF
:103000004FEA15464CEB174022EA0B4E0BFB06FC31
:1030100025EA06470EFB06F607FB0EFE0BFB07F73D
:103020001EEB064E4CEB164C4FF000061EEB074E07
:103030004CEB174B18EB0B0840F1000018EB0E0B94
:1030400058EB000840F100008F1A4FF000013CBF20
:10305000C943661B14BFB5EB040C00213CBFC94338
:10306000F61B4FEA17444EEA8E0E27EA04454FEA54
:103070001C4704FB07622CEA074C05FB07F70CFB17
:1030800005F604FB0CFC16EB074642EB174216EB69
:103090000C4642EB1C421BEB060658EB0202414178
:1030A00046EA9E0601D5BDE80189B619524141EBB9
:1030B0000101A3F10103BDE801894FEA14454FEA7C
:1030C000114724EA054621EA074C05FB07F406FBF5
:1030D00007F70CFB06F105FB0CFC11EB074144EB79
:1030E00017444FEA124711EB0C4144EB1C4422EA0F
:1030F000074C05FB07F206FB07F70CFB06F605FB82
:103100000CFC16EB074642EB174216EB0C4642EB63
:103110001C456A1854F1000148BF7047B619524166
:1031200041EB0101A3F10103704795F0000F37D087
:103130004FEA11424FEA144721EA024624EA074CBB
:1031400002FB07F106FB07F70CFB06F402FB0CFC85
:1031500014EB074441EB17414FEA154714EB0C44BD
:1031600041EB1C4125EA074C02FB07F506FB07F77C
:103170000CFB06F602FB0CFC16EB074645EB17456D
:1031800016EB0C4645EB1C42121951F1000148BFE9
:103190007047B619524141EB0101A3F10103704799
:1031A0004FEA14454FEA114724EA054621EA074C45
:1031B00005FB07F106FB07F70CFB06F24FF00006D4
:1031C00005FB0CFC12EB074241EB174112EB0C42E2
:1031D00051EB1C4148BF7047921841EB0101A3F12C
:1031E00001037047490050EAC12018BF04204A0D6E
:1031F00018BF40F0010040F2FF72B2EB515F08BF10
:1032000040F00200012808BF0520704730380A2826
:1032100001D20120704700207047000010B500293E
:103220000AD00878002807D005487844FFF7D8FB73
:10323000002801D0002010BD0248784410BD0000D5
:10324000B21A0000AA1A000021F00042A2F1605256
:10325000B2F5801F01F0004328BFD2F17F6C0BD97B
:103260005FEA001C43EAC20242EB507018BF70478D
:1032700028BF20F001007047B2F5801FBCBF184680
:1032800070474FEA410C1CF5001F02D2084600F0BF
:10329000AABB70B500F020FA00000089FFF7F6BF66
:1032A0004FF00040A0F58000704700002DE9C041BC
:1032B00030B4DFF8A0C23CEA111418BF3CEA131482
:1032C00000F0EC8081EA03051CEA111444EAD5748D
:1032D00018BF1CEA131500F0C780A4EB05044FF0DB
:1032E000004545EAC12145EAC32341EA505143EA7A
:1032F000525304F17F74994204F500344FEAC02020
:103300004FEAC22208BF904200F09C804FEA13654A
:103310000FF24016765D4FEA134506FB05F7C7F13D
:10332000807706FB07F74FEAD737A7FB036876429B
:10333000C8F58038A7FB06CE38BFA8F1010807FB07
:1033400008E64FF0000EA6FB028CE6FB03CEDCF194
:10335000000CCEF1004E38BFAEF1010EA6FB0C58AA
:103360004FF000074FF00005E6FB0E87A1FB08C6F3
:10337000A0FB07CE16EB0E0645F10005E1FB076545
:1033800015F1E04E7EBFA4F580345FEA46066D413C
:1033900016F1800745F100054FEA17274FEA066648
:1033A00047EA0567A6F1DE46B6F1805F4FEA1525CC
:1033B0001FD9384624F0010C05EBC471BCF1FE6F37
:1033C00001EB0C1102D8F0BCBDE8008124425CBFC7
:1033D00001F5801E9EEAC47F02D4F0BCBDE80081E6
:1033E000244238D4F0BCA1F1C041BDE8004100F056
:1033F000C1B94FEAD22242EA43524FEAD323A7FB94
:1034000002864FEAD02040EA415007FB03661EEADD
:103410000E0F4FEAD12105FB026658BFA6EB0056FE
:10342000B6EB00564FEA520E4EEAC37E18EB0E0E74
:1034300056EB530EBDD518EB02085E417F1C55F1CB
:103440000005B6E74FF480154FF000074FF0000677
:103450004FF00008ADE7F0BC4FF0000001F1C041B3
:1034600001F00041BDE8008111EA0C1F0CEA1315C0
:1034700000D00CE013EA0C1F00F025804FF0000094
:10348000F0BC81EA030101F00041BDE80081F0BC1D
:10349000BDE8004181EA030100F06CB9F0BCBDE871
:1034A000004170B500F018F9097EFC3E00F007B845
:1034B00081EA03014FF0000001F00041704781EA0A
:1034C000030100F057B9F0BCBDE800414FF0000027
:1034D00021497047FFFDFBF9F7F5F4F2F0EEEDEB53
:1034E000E9E8E6E4E3E1E0DEDDDBDAD8D7D5D4D302
:1034F000D1D0CFCDCCCBCAC8C7C6C5C4C2C1C0BF4E
:10350000BEBDBCBBBAB9B8B7B6B5B4B3B2B1B0AF53
:10351000AEADACABAAA9A8A8A7A6A5A4A3A3A2A137
:10352000A09F9F9E9D9C9C9B9A99999897979695F2
:1035300095949393929191908F8F8E8E8D8C8C8B8E
:103540008B8A898988888787868585848483838216
:10355000828181800000FF070000F87FB0FA80F3CD
:1035600010FA03F10AD0C3F11D0303F580634FEA9B
:1035700041504FEA035202EBD12170474FF0000057
:1035800070470000DFF848C170B51CEA111E1EBF6D
:103590001CEA13159EEA0C0F95EA0C0F00F06F80E1
:1035A00081EA030423EA4C134EEAD47E21EA4C114B
:1035B00041F4801143F48013AE44A1FB024CA0FB04
:1035C0000365AEF17F7E361955EB0C05A1FB034C6C
:1035D0004CF10003A0FB021C16EB0C06654153F1F5
:1035E0000003094218BF46F0010613F4007F0BD117
:1035F0004FEA03314FEA0530340341EA155140EAFE
:1036000016506FF003020AE04FEAC3214FEAC520CB
:10361000F40241EA555140EA56506FF0020202EBC3
:103620002E4201EB025585EACE710AD05FEA440CC6
:1036300018BF24F0004450F1000041F1000120EADD
:10364000D47040F2FE7C624500D270BDA84214BF27
:103650004FF080444FF04044002E08BF0024BEF1DC
:10366000806FA8BFA1F1C041BDE8704080F28280A8
:103670004FF0000001F1C04101F0004170479EEAA7
:103680000C0F0CEA131518BF95EA0C0F06D04FF07B
:10369000000081EA030E0EF0004170BD00F01CF83E
:1036A0008900013E00F007B800F009B84FEA430C6A
:1036B0005FEA5C5C08D081EA030100F05BB84FEA86
:1036C000410C5FEA5C5CF6D14FF0000001497047A5
:1036D0000000FF070000F87F0EF1020E2EF0030E2F
:1036E0005EF8046B364205D4012A43EB030515F559
:1036F000001F12D8012841EB010C1CF5001F0CD84B
:103700000ED14FEAD17C15F5001F0CEB4C0C0CF1DF
:10371000020C08BF4CEBD37C04E04FF0080C01E036
:103720004FEAD37C0CEB4C0526FA05F606F00706AB
:10373000B6F1040C06D20EEB860CBDE870404CF0DE
:10374000010C6047DFE80CF0090B02024FF000416A
:103750004FF00000A1F5002170BD19461046012868
:1037600051EB010418BFD4F5001484BF002001F010
:10377000004170BD0808A0F500114FEA3101704703
:1037800043004FEAD30C4FEA3C0C43401FBF4007B5
:103790000CF1605113F0FE4F70471CF0006F03D125
:1037A00000200CF0004170470CF0004343EA5070D9
:1037B00010B540EACC0000F0D0F800BF0000009245
:1037C0004FEA0001FFF7D6BF4FF000414FF0000075
:1037D000A1F500217047401058BFC0F1404049108A
:1037E00058BFC1F140418142EFF3008070470000B3
:1037F00050EA010C00F113801CF5000F58BFBCF516
:10380000000F01D48842704707D710F5000F58BF4A
:1038100011F5000F15D488427047894270471CF596
:10382000000F04D5BCF5000FF7D5814270474FF06B
:10383000807C1CEB400F38BF1CEB410F01D2814252
:10384000704710B500F089F8922449004FF00050FD
:103850004FF08051FFF7BFBF4FF47F0C1CEAD0122E
:103860001EBF1CEAD11392EA0C0F93EA0C0F00F072
:10387000478090EA010F48BF42F480724FF0004C3D
:103880004CEA00204CEA012102EB0302A0FB0113E9
:10389000A2F50002002918BF43F001035B0028BF16
:1038A0004FEA330342EB22425FEA132C4CEBC25047
:1038B0002EBFBCEB436FB2F57C0F70474FEA036C31
:1038C000BCF1004F08BF20F00100B2F57C0F38BFFB
:1038D00070470BD582F0FF0212F5803FC8BF7047DA
:1038E00000F1C040D8BF00F00040704700F5000C68
:1038F0005FEA4C0C48BF7047B0F1C04000F073B8AD
:1039000090EA010F0CEAD11348BF42F4807262457D
:1039100038BF634504D280EA010000F000407047E0
:1039200010B500F01AF800BF8900013E00F007B89A
:1039300000F009B85FEA410C5FEA1C6C08D080EA2D
:10394000010000F050B85FEA400C5FEA1C6CF6D151
:103950004FF00040A0F5800070470EF1020E2EF0EF
:10396000030E5EF8044B244204D44FEA4102B2F144
:103970007F4F11D84FEA4003B3F17F4F0CD80ED1DF
:103980004FEAD07CB2F17F4F0CEB4C0C0CF1020CE7
:1039900008BF4CEBD17C04E04FF0080C01E04FEA8B
:1039A000D17C0CEB4C0324FA03F404F00704B4F1CB
:1039B000040C06D20EEB840CBDE810404CF0010C58
:1039C0006047DFE80CF0070802024FF00040A0F566
:1039D000800010BD0846420018BFD2F1807288BF37
:1039E00000F0004010BDFF2141EAD050C0057047F3
:1039F00051EA000C00F113801CF5000F58BFBCF514
:103A0000000F01D48142704707D711F5000F58BF4E
:103A100010F5000F15D481427047894270471CF59C
:103A2000000F04D5BCF5000FF7D5884270474FF062
:103A3000807C1CEB410F38BF1CEB400F01D2884249
:103A4000704780EA010081EA000180EA0100FFF787
:103A5000F8BEFEF741BD00000000000000000000BD
:103A60000000000000000000000000000000000056
:103A70000000000000000000000000000000000046
:103A80000000000000000000800180018001800132
:103A9000800180018001800180018001800180011E
:103AA0008001000000008001800100000000000093
:103AB00000000000000000000000CC00CC00CC00A2
:103AC000CC00CC00CC000000000000000000000092
:103AD00000000000000000000000000000000000E6
:103AE00000000000000000000000000000000000D6
:103AF0000000600C600C600C30063006FE1FFE1FDC
:103B0000300638071803FE1FFE1F180318038C0128
:103B10008C018C01000000008000E003F80F9C0E77
:103B20008C1C8C188C009800F801E007800E801C1B
:103B30008C188C189C18B80CF00FE00380008000E3
:103B40000000000000000000000000000E181B0C28
:103B5000110C11061106110311039B018E01C038CF
:103B6000C06C60446044304430441844186C0C38D5
:103B70000000000000000000E001F0033807180614
:103B800018063003F001F000F8009C310E33061ED9
:103B9000061C061C063FFC73F0210000000000001C
:103BA000000000000000000000000C000C000C00F1
:103BB0000C000C000C0000000000000000000000E1
:103BC00000000000000000000000000000000000F5
:103BD0000000000000000000000200038001C0009F
:103BE000C000600060003000300030003000300065
:103BF00030003000300060006000C000C000800174
:103C0000000300020000000020006000C0008001EE
:103C100080010003000300060006000600060006FF
:103C20000006000600060003000380018001C000BA
:103C30006000200000000000000000000000000004
:103C40000000C000C000D806F807E00130033807C4
:103C50000000000000000000000000000000000064
:103C60000000000000000000000000000000000054
:103C7000000080018001800180018001FC3FFC3F49
:103C800080018001800180018001000000000000AF
:103C90000000000000000000000000000000000024
:103CA0000000000000000000000000000000000014
:103CB0000000000000000000800180010001000100
:103CC0008000000000000000000000000000000074
:103CD0000000000000000000000000000000E007FD
:103CE000E0070000000000000000000000000000ED
:103CF00000000000000000000000000000000000C4
:103D000000000000000000000000000000000000B3
:103D10000000000000000000C000C0000000000023
:103D20000000000000000000000C000C000600066F
:103D3000000600030003000380038001800180016E
:103D4000C000C000C0006000600000000000000073
:103D50000000000000000000E003F007380E180C1F
:103D60000C180C180C180C180C180C180C180C1833
:103D70000C18180C380EF007E003000000000000DB
:103D8000000000000000000000018001C001F001FF
:103D900098018801800180018001800180018001FB
:103DA000800180018001800180010000000000008E
:103DB0000000000000000000E003F80F180C0C18D1
:103DC0000C1800180018000C000600038001C00049
:103DD000600030001800FC1FFC1F00000000000005
:103DE0000000000000000000E001F807180E0C0CB5
:103DF0000C0C000C0006C003C007000C00180018D3
:103E00000C180C18180CF807E00300000000000064
:103E10000000000000000000000C000E000F000F6A
:103E2000800DC00C600C600C300C180C0C0CFC3FAE
:103E3000FC3F000C000C000C000C00000000000017
:103E40000000000000000000F80FF80F1800180034
:103E50000C00EC03FC071C0E001C001800180018D6
:103E60000C181C0C180EF807E003000000000000FE
:103E70000000000000000000C007F00F381C1818F8
:103E800018000C00CC03EC0F3C0E1C1C0C180C187A
:103E90000C18181C380EF007E003000000000000AA
:103EA0000000000000000000FC1FFC1F000C0006CA
:103EB0000006000380038001C001C000E000600034
:103EC0006000700030003000300000000000000092
:103ED0000000000000000000E003F007380E180C9E
:103EE000180C180C3806F007F007180C0C180C18F2
:103EF0000C180C18380CF80FE0030000000000004C
:103F00000000000000000000E003F007380E1C0C69
:103F10000C180C180C181C1C381EF81BE019001883
:103F2000000C000C1C0EF807F0010000000000005F
:103F30000000000000000000000000000000000081
:103F4000000080018001000000000000000000006F
:103F5000000000000000800180010000000000005F
:103F60000000000000000000000000000000000051
:103F7000000080018001000000000000000000003F
:103F800000000000000080018001000100018000AD
:103F90000000000000000000000000000000000021
:103FA0000000000000000010001C800FE003F8007B
:103FB0001800F800E003800F001C00100000000053
:103FC00000000000000000000000000000000000F1
:103FD000000000000000F81F000000000000F81FB3
:103FE00000000000000000000000000000000000D1
:103FF00000000000000000000000000000000000C1
:1040000000000000000008003800F001C007001F99
:104010000018001FC007F001380008000000000071
:104020000000000000000000E003F80F180C0C185E
:104030000C180018000C000600038001C000C0002E
:10404000C00000000000C000C00000000000000030
:1040500000000000000000000000E0071818042025
:10406000C229224A1144094409440944092211136E
:10407000E20C024004201818E007000000000000D5
:10408000000000000000000080038003C006C0069E
:10409000C006600C600C301830183018F83FF83F3C
:1040A0001C700C600C6006C006C000000000000020
:1040B0000000000000000000FC03FC0F0C0C0C18BA
:1040C0000C180C180C0CFC07FC0F0C180C300C30E6
:1040D0000C300C300C18FC1FFC0700000000000026
:1040E0000000000000000000C007F01F38381C303E
:1040F0000C700660060006000600060006000600BA
:1041000006600C701C30F01FE0070000000000008B
:104110000000000000000000FE03FE0F060E06185F
:1041200006180630063006300630063006300630F7
:1041300006180618060EFE0FFE0300000000000021
:104140000000000000000000FC3FFC3F0C000C00E1
:104150000C000C000C00FC1FFC1F0C000C000C00E1
:104160000C000C000C00FC3FFC3F000000000000B5
:104170000000000000000000F83FF83F18001800A1
:10418000180018001800F81FF81F18001800180071
:1041900018001800180018001800000000000000A7
:1041A0000000000000000000E00FF83F3C780E60C7
:1041B00006E007C00300030003FE03FE03C007C0C0
:1041C00006C00EC03CF0F83FE00F00000000000009
:1041D00000000000000000000C300C300C300C30EF
:1041E0000C300C300C30FC3FFC3F0C300C300C30F1
:1041F0000C300C300C300C300C3000000000000093
:1042000000000000000000008001800180018001AA
:104210008001800180018001800180018001800196
:104220008001800180018001800100000000000009
:104230000000000000000000000600060006000666
:10424000000600060006000600060006000600063E
:10425000180618063807F003E0010000000000000F
:10426000000000000000000006300618060C0606DC
:1042700006038601C60066007600DE008E01060396
:104280000606060C06180630066000000000000056
:1042900000000000000000001800180018001800BE
:1042A000180018001800180018001800180018004E
:1042B000180018001800F81FF81F00000000000088
:1042C00000000000000000000EE01EF01EF01EF0D6
:1042D00036D836D836D836D866CC66CC66CCC6C684
:1042E000C6C6C6C6C6C686C386C300000000000098
:1042F00000000000000000000C301C303C303C305E
:104300006C306C30CC30CC308C310C330C330C3600
:104310000C360C3C0C3C0C380C300000000000004B
:104320000000000000000000E007F81F1C380E70BD
:10433000066003C003C003C003C003C003C003C0C2
:1043400006600E701C38F81FE00700000000000037
:104350000000000000000000FC0FFC1F0C380C30B7
:104360000C300C300C300C18FC1FFC070C000C003F
:104370000C000C000C000C000C0000000000000001
:104380000000000000000000E007F81F1C380E705D
:10439000066003E003C003C003C003C003C007E01E
:1043A00006630E3F1C3CF83FE0F700C00000000031
:1043B0000000000000000000FE0FFE1F063806305F
:1043C000063006300638FE1FFE0706030606060CFA
:1043D00006180618063006300660000000000000CF
:1043E0000000000000000000E003F80F1C0C0C1897
:1043F0000C180C001C00F803E00F001E00380630FB
:1044000006300E301C1CF80FE00700000000000012
:104410000000000000000000FE7FFE7F80018001A0
:104420008001800180018001800180018001800184
:1044300080018001800180018001000000000000F7
:1044400000000000000000000C300C300C300C307C
:104450000C300C300C300C300C300C300C300C307C
:104460000C300C301818F81FE007000000000000A6
:104470000000000000000000036006300630063037
:104480000C180C180C18180C180C380E30063006C6
:10449000700760036003C001C0010000000000005D
:1044A00000000000000000000360C361C361C3613D
:1044B0006633663366336633663366336C1B6C1B58
:1044C0006C1B2C1A3C1E380E380E00000000000039
:1044D00000000000000000000FE00C7018303018E1
:1044E000700C600EC00780038003C003E006700CF0
:1044F000301C18180C300E6007E0000000000000AF
:10450000000000000000000003C006600C301C38F2
:104510003818300C6006E007C0038001800180017C
:104520008001800180018001800100000000000006
:104530000000000000000000FC7FFC7F00600030F5
:104540000018000C000600038001C000600030006D
:1045500018000C000600FE7FFE7F00000000000037
:104560000000000000000000E003E00360006000C5
:10457000600060006000600060006000600060003B
:10458000600060006000600060006000600060002B
:10459000E003E00300000000300030006000600035
:1045A0006000C000C000C000C00180018001800127
:1045B00000030003000300060006000000000000E6
:1045C0000000000000000000E003E003000300031F
:1045D00000030003000300030003000300030003C3
:1045E00000030003000300030003000300030003B3
:1045F000E003E003000000000000C001C001600310
:104600006003600330063006180C180C0000000030
:10461000000000000000000000000000000000009A
:10462000000000000000000000000000000000008A
:10463000000000000000000000000000000000007A
:104640000000000000000000FFFFFFFF000000006E
:1046500000000000000000000C000C000C000C002A
:104660000C000C0000000000000000000000000032
:10467000000000000000000000000000000000003A
:10468000000000000000000000000000000000002A
:104690000000F003F8071C0C0C0C000FF00FF80CD6
:1046A0000C0C0C0C1C0FF80FF018000000000000A0
:1046B000000000000000000018001800180018009A
:1046C0001800D803F80F380C1818181818181818EC
:1046D00018181818380CF80FD80300000000000054
:1046E00000000000000000000000000000000000CA
:1046F0000000C003F007300E180C18001800180056
:104700001800180C300EF007C00300000000000075
:104710000000000000000000001800180018001839
:104720000018C01BF01F301C18181818181818187B
:1047300018181818301CF01FC01B000000000000E3
:104740000000000000000000000000000000000069
:104750000000C003F00F300C1818F81FF81F1800E5
:1047600018003818301CF00FC007000000000000CF
:104770000000000000000000800FC00FC000C0005B
:10478000C000F007F007C000C000C000C000C000BB
:10479000C000C000C000C000C00000000000000059
:1047A0000000000000000000000000000000000009
:1047B0000000E00DF80F180E0C0C0C0C0C0C0C0C7F
:1047C0000C0C0C0C180EF80FE00D000C0C0C1C0659
:1047D000F807F00100000000180018001800180089
:1047E0001800D807F80F381C1818181818181818B7
:1047F00018181818181818181818000000000000C9
:104800000000000000000000C000C0000000000028
:104810000000C000C000C000C000C000C000C00058
:10482000C000C000C000C000C000000000000000C8
:104830000000000000000000C000C00000000000F8
:104840000000C000C000C000C000C000C000C00028
:10485000C000C000C000C000C000C000C000C00058
:10486000F8007800000000000C000C000C000C00A8
:104870000C000C0C0C060C038C01CC006C00FC0032
:104880009C018C030C030C060C0C000000000000C3
:104890000000000000000000C000C000C000C00018
:1048A000C000C000C000C000C000C000C000C00008
:1048B000C000C000C000C000C00000000000000038
:1048C00000000000000000000000000000000000E8
:1048D00000007C3CFF7EC7E383C183C183C183C1E9
:1048E00083C183C183C183C183C100000000000074
:1048F00000000000000000000000000000000000B8
:1049000000009807F80F381C1818181818181818ED
:1049100018181818181818181818000000000000A7
:104920000000000000000000000000000000000087
:104930000000C003F00F300C1818181818181818B9
:1049400018181818300CF00FC00300000000000009
:104950000000000000000000000000000000000057
:104960000000D803F80F380C181818181818181861
:1049700018181818380CF80FD80318001800180069
:1049800018001800000000000000000000000000F7
:104990000000C01BF01F301C181818181818181821
:1049A00018181818301CF01FC01B00180018001829
:1049B00000180018000000000000000000000000C7
:1049C0000000B007F003700030003000300030000D
:1049D00030003000300030003000000000000000E7
:1049E00000000000000000000000000000000000C7
:1049F0000000E003F003380E180C3800F003C00785
:104A0000000C180C380EF007E00300000000000056
:104A1000000000000000000000008000C000C00096
:104A2000C000F007F007C000C000C000C000C00018
:104A3000C000C000C000C0078007000000000000E8
:104A40000000000000000000000000000000000066
:104A50000000181818181818181818181818181806
:104A600018181818381CF01FE0190000000000008A
:104A70000000000000000000000000000000000036
:104A800000000C18180C180C180C300630063006F4
:104A9000600360036003C001C0010000000000006B
:104AA0000000000000000000000000000000000006
:104AB0000000C141C141C361636363636363363610
:104AC000363636361C1C1C1C1C1C00000000000066
:104AD00000000000000000000000000000000000D6
:104AE00000001C38381C300C600660036003600353
:104AF00060036006300C381C1C3800000000000009
:104B000000000000000000000000000000000000A5
:104B100000001830301830187018600C600CE00C71
:104B2000C006C00680038003800380018001C001AD
:104B3000F000700000000000000000000000000015
:104B40000000FC1FFC1F000C000600038001C000D9
:104B5000600030001800FC1FFC1F00000000000077
:104B6000000000000000000000038001C000C00041
:104B7000C000C000C000C0006000600030006000E5
:104B80004000C000C000C000C000C000C0008001E4
:104B9000000300000000000080018001800180010E
:104BA00080018001800180018001800180018001FD
:104BB00080018001800180018001800180018001ED
:104BC00080018001000000006000C000C001800181
:104BD00080018001800180010003000300060003C2
:104BE0000001800180018001800180018001C000FE
:104BF0006000000000000000000000000000000055
:104C0000000000000000F010F81F080F0000000076
:104C10000000000000000000000000000000000094
:104C2000000000000000000002400000000000A0A2
:104C30000000000005400000000000C80000000067
:104C40000C4000000000409C0000000019400000E3
:104C50000020BCBE0000000034400000BFC91B8E15
:104C600000000004B5400000504BCFD06607E2CFF3
:104C7000010000006C4100003E8251AADFEEA73423
:104C800001000000D9420000DCB5A0E23A301F97D5
:104C9000FFFFFFFFB4450000FD25A0C8E9A3C14FF9
:104CA000FFFFFFFFFF3F000000000080000000004A
:104CB000FF3F00000000008000000000F84C0008EA
:104CC0000000002044000000280100083C4D0008BE
:104CD0004400002074060000440100081C0000008D
:104CE00043000000F8FFFFFF0C0000000E00000072
:104CF0000F0000002E000000000000000000000077
:104D00000000003F333353400000000000A24A047B
:104D1000000000000000000001020304060708096B
:104D20000000FFFF00000000000001020304010278
:0C4D30000304060708090204060800003E
:04000005080000ED02
:00000001FF
