:020000040800F2
:10000000B0060020C51100081D0200081F020008EC
:1000100023020008270200082B020008000000004D
:100020000000000000000000000000002F02000897
:100030003102000800000000330200083502000809
:10004000DF110008DF110008DF110008DF110008D0
:10005000DF110008DF11000841020008DF1100086D
:10006000DF110008DF110008DF110008DF110008B0
:10007000DF110008DF110008DF110008DF110008A0
:10008000DF110008DF110008DF110008DF11000890
:10009000DF110008DF110008DF1100087B020008F3
:1000A000DF110008DF110008DF110008DF11000870
:1000B000DF110008DF110008DF110008DF11000860
:1000C000DF110008DF110008DF110008DF11000850
:1000D000DF110008DF110008CF1D0008DF11000844
:1000E000DF110008DF110008DF11000800F002F83E
:1000F00000F03AF80AA090E8000C82448344AAF188
:100100000107DA4501D100F02FF8AFF2090EBAE885
:100110000F0013F0010F18BFFB1A43F0010318473B
:10012000542F0000742F0000103A24BF78C878C103
:10013000FAD8520724BF30C830C144BF04680C60ED
:10014000704700000023002400250026103A28BF35
:1001500078C1FBD8520728BF30C148BF0B60704739
:100160001FB51FBD10B510BD01F065FE1146FFF7AC
:10017000F7FF00F021F801F083FE03B4FFF7F2FF70
:1001800003BC01F087FE000010B5002807DA0A075B
:10019000140E1E4A00F00F031B1FD45403E00A077D
:1001A000130E1B4A135410BD1A49086000BF1949A9
:1001B00009680029FBD17047174800684FF47A712D
:1001C000B0FBF1F4B4F1807F00D311E024F07F4064
:1001D000401E4FF0E02148610F214FF0FF30FFF744
:1001E000D3FF00204FF0E02188610720086100BFA5
:1001F0000121881EFFF7C8FF01F004F801F0BCFAE6
:100200004FF6FF7001F077FB00BFFEE718ED00E04E
:1002100000E400E00000002004000020704700BF60
:10022000FEE700BFFEE700BFFEE700BFFEE7704746
:100230007047704721480068401E20490860704799
:1002400010B5012000F022FAB0B10A20FFF7ACFF90
:1002500001211B4800F025FB70B91AA1A82001F06C
:100260002DFB00BF4FF48071154800F01AFB0028E9
:10027000F8D0012000F01BFA10BD10B54FF48070CB
:1002800000F004FAC0B10A20FFF78EFF4FF480712E
:100290000B4800F006FB78B90FA1A82001F00EFB77
:1002A00000BF4FF48071064800F0FBFA0028F8D038
:1002B0004FF4807000F0FBF910BD0000000000203A
:1002C0000008014020427574746F6E3120707265B1
:1002D000737365642E2E2E0020427574746F6E3217
:1002E00020707265737365642E2E2E000CB500208D
:1002F000019000906B48006840F4803069490860C4
:1003000000BF6848006800F4003000900198401C6D
:100310000190009818B90198B0F5A06FF1D161482B
:10032000006810F4003F02D00120009001E000209E
:1003300000900098012842D15B48006840F010000E
:10034000594908600846006820F003000860084624
:10035000006840F002000860524840685149486017
:100360000846406848600846406840F4806048603D
:100370000846406820F47C1048600846406840F415
:10038000E81048600846006840F08070086000BFD0
:100390004448006810F0007FFAD04248406820F0DE
:1003A0000300404948600846406840F00200486049
:1003B00000BF3C48406800F00C000828F9D10CBD93
:1003C00010B5FFF793FF10BD10B53648006840F038
:1003D0000100344908600846406834490840314902
:1003E000486008460068324908402E4908600846BF
:1003F000006820F4802008600846406820F4FE0071
:1004000048604FF41F008860FFF7DAFF4FF000608C
:100410002849086010BD10B5002100200022214BA2
:100420005B6803F00C0121B1042906D0082928D10A
:1004300007E0214B214C236027E01F4B1F4C23601A
:1004400023E0184B5B6803F47010164B5B6803F4F1
:100450008032022303EB904022B9194B4343174CDF
:1004600023600DE00F4B5B6813F4003F04D0144B86
:100470004343124C236003E00F4B43430F4C236074
:1004800003E00D4B0D4C236000BF00BF054B5B68C4
:10049000C3F303130B4CE15C084B1B68CB40074CC8
:1004A000236010BD00100240002002400000FFF851
:1004B000FFFFF6FE08ED00E000127A0004000020C5
:1004C00000093D000800002031490143314A116014
:1004D000704770B5002100230F22C4780CB32D4C57
:1004E000246804F4E064C4F5E064210AC1F1040363
:1004F000CA40447804FA03F1847814402143090186
:10050000254C0678A155047804F01F050124AC4061
:1005100005786D114FF0E02606EB8505C5F8004122
:1005200009E0047804F01F050124AC401B4D067857
:10053000761145F8264070BD194A0A400243154B12
:100540001B1F1A60704739B1124A121D126802430C
:10055000104B1B1D1A6006E00E4A121D12688243E2
:100560000C4B1B1D1A607047042808D14FF0E02186
:10057000096941F004014FF0E022116107E04FF0FA
:10058000E021096921F004014FF0E0221161704778
:100590000000FA050CED00E000E400E080E100E07E
:1005A00080FFFF1F002044490860091D0860091DE5
:1005B0000860091D086041483F49143108607047D0
:1005C00000213D498279002A3AD00A461268036820
:1005D0009A430B461A600A1D126803689A430B1D62
:1005E0001A60027911440A6803681A430A60324AA1
:1005F0000832126803689A432F4B08331A601A1D99
:10060000126803689A432C4B0C331A604279102A03
:100610000ED11A1F126803681A43274B08331A6059
:100620001A1D126803681A43234B0C331A600DE03D
:100630002149427911440A6803681A430A6005E0B7
:10064000027911440A6803689A430A6070470021DE
:10065000016001710C2141710021817170471649BF
:10066000103109680143144A103211607047014685
:100670000020114A143212680A4201D0012000E021
:10068000002070470C491431086070470146002073
:100690000022094B1B6803EA0102074B14331B6855
:1006A0000B4202D00AB1012000E00020704702494D
:1006B000143108607047000000040140FFFF0F0084
:1006C00010B50446CA48844208D10121042000F034
:1006D00027FB0021042000F023FB46E0C5488442AC
:1006E00008D10121082000F01BFB0021082000F0A8
:1006F00017FB3AE0C048844208D10121102000F0E5
:100700000FFB0021102000F00BFB2EE0BB488442C1
:1007100008D10121202000F003FB0021202000F05F
:10072000FFFA22E0B648844208D10121402000F0BF
:10073000F7FA0021402000F0F3FA16E0B1488442B5
:1007400008D10121802000F0EBFA0021802000F088
:10075000E7FA0AE0AC48844207D10121801500F095
:10076000DFFA0021A01500F0DBFA10BD10B5012161
:10077000084600F0D5FA0021012000F0D1FA10BDA2
:100780002DE9F04102460025002600200023002428
:10079000002791F803C00CF00F0591F803C01CF07E
:1007A000100F03D091F802C04CEA050591F800C083
:1007B000BCF1000F31D0146800202BE04FF0010C89
:1007C0000CFA00F3B1F800C00CEA03069E4220D1F7
:1007D00083004FF00F0C0CFA03F7BC4305FA03FC3F
:1007E0004CEA040491F803C0BCF1280F06D14FF085
:1007F000010C0CFA00FCC2F814C00AE091F803C026
:10080000BCF1480F05D14FF0010C0CFA00FCC2F806
:1008100010C0401C0828D1D31460B1F800C0BCF14E
:10082000FF0F34DD546800202EE000F1080C4FF07B
:10083000010808FA0CF3B1F800C00CEA03069E4266
:1008400021D183004FF00F0C0CFA03F7BC4305FADB
:1008500003FC4CEA040491F803C0BCF1280F05D155
:1008600000F1080C08FA0CF8C2F8148091F803C0E3
:10087000BCF1480F07D100F1080C4FF0010808FA4D
:100880000CF8C2F81080401C0828CED35460BDE894
:10089000F0814FF6FF710180022181700421C17047
:1008A00070470246002093680B4201D0012000E00F
:1008B000002070470146886880B2704702460020D9
:1008C000D3680B4201D0012000E0002070470146B0
:1008D000C86880B2704701617047416170470AB1D2
:1008E000016100E041617047C16070474FF48032A0
:1008F0000A4382618161826182698269704702462E
:100900000020424B18684FF68073184040EA0210EE
:1009100008433E4B186070473D49C8617047F0B5C9
:100920000A46002300240021002500F00046B6F10D
:10093000004F02D1354EF16901E0344E7168C0F3C9
:10094000034583B200F44016B6F5401F08D121F0EC
:1009500070612E4E766826F070662C4F7E6012E035
:1009600000F48016B6F5801F06D1032606FA05F4BA
:10097000A14341F0706106E0460D360103FA06F628
:10098000B14341F0706122B1460D360103FA06F61B
:10099000314300F00046B6F1004F02D11B4EF16129
:1009A00001E01A4E7160F0BD30B500228B071C0FBC
:1009B0000F2303FA04F2154B08338C1053F824303C
:1009C0009343124C08348D1044F8253023468C1084
:1009D00053F824308C07240F00FA04F423430B4C03
:1009E00008348D1044F8253030BD0A49086070473E
:1009F00000080140000C01400010014000140140BB
:100A000000180140001C014000200140000001408E
:100A100000002042DC002042DD48006840F0010078
:100A2000DB49086008464068DA490840D849486010
:100A300008460068D8490840D5490860084600685B
:100A400020F4802008600846406820F4FE004860DA
:100A50004FF41F0088607047CD49096821F4803148
:100A6000CB4A11601146096821F480211160B0F56C
:100A7000803F03D0B0F5802F0ED106E0C44909684D
:100A800041F48031C24A116007E0C149096841F46C
:100A9000A021BF4A116000E000BF00BF704710B541
:100AA00001460022002300204A11012A02D1B84C3D
:100AB000236806E0022A02D1B54C236A01E0B44C57
:100AC000636A01F01F02012494401C4201D00120FE
:100AD00000E0002010BD38B5002000900024002563
:100AE00000BF3120FFF7DBFF05460098401C009057
:100AF0000098B0F5A06F01D0002DF2D03120FFF7A3
:100B0000CEFF08B1012400E00024204638BD014694
:100B100000209F4A106820F0F80040EAC1001060F1
:100B200070479E490860704702460020984B5868FD
:100B300020F47C1042EA01031843954B586070473B
:100B400096490866704701460020914A506820F097
:100B500003000843506070478D48406800F00C0067
:100B60007047014600208A4A506820F0F000084390
:100B70005060704701460020854A506820F4E060CC
:100B800008435060704701460020814A506820F4B5
:100B9000605040EAC1005060704729B17C4A527AE7
:100BA00002437B4B5A7204E0794A527A8243784B73
:100BB0005A7270477A490860704701460020744AAB
:100BC000506820F440400843506070470021754A47
:100BD00011706F4A82F82010012802D0042808D131
:100BE00003E001216F4A117004E005216D4A117084
:100BF00000E000BF00BF70476B4908607047644960
:100C0000096A0143624A11627047674944390860C2
:100C1000704730B500210022002400235C4D6D6830
:100C200005F00C0121B1042905D0082923D105E0E4
:100C30005E4D056022E05D4D05601FE0544D6D681E
:100C400005F47012524D6D6805F48034022505EBF1
:100C500092421CB9564D554305600BE04C4D6D68F2
:100C600015F4003F03D0524D5543056002E04F4D4F
:100C70005543056002E04D4D056000BF00BF444D87
:100C80006D6805F0F00109094A4D6B5C0568DD40AF
:100C900045603F4D6D6805F4E061090A454D6B5CA8
:100CA0004568DD4085603A4D6D6805F46051C90ABC
:100CB000404D6B5C4568DD40C560354D6D6805F4A1
:100CC0004041890B3C4D6B5CC568B5FBF3F5056194
:100CD00030BD29B12E4A526902432D4B5A6104E0BE
:100CE0002B4A526982432A4B5A61704729B1284ADC
:100CF00092690243264B9A6104E0254A9269824335
:100D0000234B9A61704729B1214AD2690243204B93
:100D1000DA6104E01E4AD26982431D4BDA617047F2
:100D200029B11B4AD2680243194BDA6004E0184A21
:100D3000D2688243164BDA60704729B1144A1269AF
:100D40000243134B1A6104E0114A12698243104BAB
:100D50001A61704714494039086070470F49C864E8
:100D600070470B49C87170470948406A40F080706D
:100D700007494862704701460020054A92680A42C6
:100D800001D0012000E000207047014988727047BF
:100D9000001002400000FFF8FFFFF6FE0000424294
:100DA000D8004242201002408004424200127A00E1
:100DB00000093D00180000202800002010B504465E
:100DC000FB48844209D101218803FFF7A9FF0021D4
:100DD0004FF48040FFF7A4FF32E0F648844209D187
:100DE00001214804FFF7A9FF00214FF40030FFF76D
:100DF000A4FF25E0F048844209D101218804FFF7CF
:100E00009CFF00214FF48020FFF797FF18E0EB488C
:100E1000844209D10121C804FFF78FFF00214FF45C
:100E20000020FFF78AFF0BE0E548844208D101214A
:100E30000805FFF782FF00214FF48010FFF77DFFC8
:100E400010BD2DE9F04786B005460E460024A246A7
:100E500000BFA1460027B08900B100BF2F462C8AF1
:100E60004CF6FF700440F08804432C82AC894EF6A7
:100E7000F3100440B0883189084371890843044362
:100E8000AC81AC8A4FF6FF400440B0890443AC8289
:100E900001A8FFF7BEFEC648874202D1DDF810A0C8
:100EA00001E0DDF80CA0A88910F4004F08D00AEB8F
:100EB000CA0000EB0A1031684900B0FBF1F807E006
:100EC0000AEBCA0000EB0A1031688900B0FBF1F8A8
:100ED0006420B8FBF0F004012009642101FB1089B3
:100EE000A88910F4004F08D0322000EBC900B0FBF5
:100EF000F1F000F00700044308E0322000EB091095
:100F00006421B0FBF1F000F00F0004432C8106B027
:100F1000BDE8F0874FF41651016000218180C18047
:100F200001810C21418100218181704710B5024669
:100F30000020108A4FF2FF0318400B884C8823438F
:100F40008C882343CC8823431843108210BD002192
:100F5000018041808180C180704721B1828942F443
:100F60000052828104E082894DF6FF731A4082812B
:100F70007047F0B503460024002600250020A1F5A7
:100F800010676A3F00D100BF1846C1F3421401F058
:100F90001F06012707FA06F5012C01D10C3004E0E9
:100FA000022C01D1103000E014301AB107682F4331
:100FB000076002E00768AF430760F0BD1AB1838A9B
:100FC0000B43838202E0838A8B4383827047028AC9
:100FD0004FF6F0731A400282028A0A430282704777
:100FE00082894FF2FF731A40828182890A4382818B
:100FF000704721B1828942F00202828104E0828935
:101000004FF6FD731A4082817047028A4FF6DF73F4
:101010001A400282028A0A430282704721B1028A80
:1010200042F48042028204E0028A4BF6FF731A40C7
:1010300002827047C1F308028280704701468888A7
:10104000C0F308007047818941F001018181704738
:10105000028BD2B20283028B42EA012202837047E2
:10106000028B02F47F420283028B0A4302837047A1
:1010700021B1828A42F02002828204E0828A4FF605
:10108000DF731A408282704721B1828A42F01002D7
:10109000828204E0828A4FF6EF731A4082827047A0
:1010A00021B1828A42F00802828204E0828A4FF6ED
:1010B000F7731A408282704721B1828942F400425C
:1010C000828103E08289C2F30E028281704721B1DE
:1010D000828A42F40062828204E0828A4FF2FF73C5
:1010E0001A4082827047828A4FF6FB731A408282CE
:1010F000828A0A438282704721B1828A42F00202C8
:10110000828204E0828A4FF6FD731A408282704721
:1011100002460020B1F5007F00D100BF13880B42CA
:1011200001D0012000E00020704701F40072B2F508
:10113000007F00D100BFCA430280704770B50246ED
:101140000024002300250020A1F510666A3E00D18E
:1011500000BFC1F3421501F01F03012606FA03F395
:10116000012D02D19689334006E0022D02D1168A64
:10117000334001E0968A33400C12012606FA04F44B
:101180001688344013B10CB1012000E0002070BD7E
:1011900010B500220023A1F510646A3C00D100BF05
:1011A0000A1201249440A3B2DC43048010BD000065
:1011B000003801400044004000480040004C00401E
:1011C000005000400948804709480047FEE7FEE715
:1011D000FEE7FEE7FEE7FEE7FEE7FEE7FEE7FEE7E7
:1011E00004480549054A064B70470000C90300083A
:1011F000ED000008B0000020B0060020B002002082
:10120000B00200201FB54FF4A060FFF75DF9012187
:101210000420FFF76BFD01210820FFF767FD012186
:101220000846FFF763FD0120ADF8040004208DF8A7
:10123000070001A93848FFF7A3FA00210846FFF785
:10124000B3FB0120029000208DF80C000C208DF8DB
:101250000D0001208DF80E0002A8FFF7B1F906205D
:101260008DF8000003208DF8010000208DF80200A9
:1012700001208DF803006846FFF72BF94FF48070CA
:10128000ADF8040001A92448FFF77AFA08210020EC
:10129000FFF78AFB4FF48070029002A8FFF790F9E5
:1012A00017208DF8000001208DF802006846FFF736
:1012B00010F90220ADF8040001A91848FFF760FA00
:1012C00001210846FFF770FB0220029002A8FFF7F9
:1012D00077F907208DF8000002208DF8020068469B
:1012E000FFF7F7F80420ADF8040001A90B48FFF759
:1012F00047FA02210120FFF757FB0420029002A8C1
:10130000FFF75EF908208DF8000003208DF8020039
:101310006846FFF7DEF81FBD00080140000C0140E1
:10132000002109E0002201E0531C9AB240F6B833D4
:101330009A42F9DB4B1C99B28142F3DB70474FF4C0
:101340000072FA4B1A6052101A6020221B1F1A609A
:10135000F74AD06020221B1D1A601B1F1A60D200A2
:101360001A60F34AD16020221B1D1A601B1F1A60ED
:10137000D2001A60704700B501210020FFF7DFFF9F
:101380004FF47A70FFF7CCFF00210120FFF7D7FF61
:1013900041F290711020FFF7D2FF4FF41C516020F2
:1013A000FFF7CDFF01216120FFF7C9FF0221462091
:1013B000FFF7C5FF48F210011320FFF7C0FF48F206
:1013C000FE011220FFF7BBFF4FF4A0610220FFF7E0
:1013D000B6FF41F230010320FFF7B1FF40F20331C5
:1013E0003020FFF7ACFF40F203313120FFF7A7FFB9
:1013F00040F203313220FFF7A2FF4FF44071332057
:10140000FFF79DFF03213420FFF799FF40F20331DE
:101410003520FFF794FF14213620FFF790FF40F2AC
:1014200003313720FFF78BFF40F203313820FFF7FD
:1014300086FF40F203313920FFF781FF4FF44071FE
:101440003A20FFF77CFF03213B20FFF778FF40F2B3
:1014500003313C20FFF773FF4FF4A0513D20FFF70D
:101460006EFF4FF400719220FFF769FF40F20331E5
:101470009320FFF764FF40F60D019020FFF75FFF18
:1014800041F218010320FFF75AFF40F273110720C1
:10149000FFF755FF00BD00B543F20801E320FFF759
:1014A0004EFF1221E720FFF74AFF41F23121EF20E2
:1014B000FFF745FF00210120FFF741FF4FF4E061F6
:1014C0000220FFF73CFF41F230010320FFF737FF16
:1014D00000210420FFF733FF40F207210820FFF727
:1014E0002EFF00210920FFF72AFF00210A20FFF725
:1014F00026FF00210C20FFF722FF00210D20FFF71F
:101500001EFF00210F20FFF71AFF00211020FFF718
:1015100016FF07211120FFF712FF00211220FFF70D
:101520000EFF00211320FFF70AFF4FF47A70FFF738
:10153000F7FE41F290611020FFF701FF40F22721F2
:101540001120FFF7FCFE3220FFF7EAFE1D211220DA
:10155000FFF7F5FE3220FFF7E3FE4FF400611320A2
:10156000FFF7EDFE14212920FFF7E9FE0B212B20C8
:10157000FFF7E5FE3220FFF7D3FE00212020FFF722
:10158000DEFE00212120FFF7DAFE07213020FFF7E1
:10159000D6FE40F207713120FFF7D1FE062132203E
:1015A000FFF7CDFE40F204713520FFF7C8FE41F68B
:1015B00004713620FFF7C3FE04213720FFF7BFFE7A
:1015C00000213820FFF7BBFE40F206713920FFF7FB
:1015D000B6FE40F201713C20FFF7B1FE0F213D2025
:1015E000FFF7ADFE00215020FFF7A9FEEF215120AB
:1015F000FFF7A5FE00215220FFF7A1FE40F23F11A8
:101600005320FFF79CFE4FF41C516020FFF797FE1C
:1016100001216120FFF793FE00216A20FFF78FFE72
:1016200000218020FFF78BFE00218120FFF787FE3D
:1016300000218220FFF783FE00218320FFF77FFE39
:1016400000218420FFF77BFE00218520FFF777FE35
:1016500010219020FFF773FE00219220FFF76FFE0C
:1016600003219320FFF76BFE4FF488719520FFF75D
:1016700066FE00219720FFF762FE00219820FFF709
:101680005EFE41F218010320FFF759FE40F273118C
:101690000720FFF754FE00BD08B54FF6FF70ADF808
:1016A000000003208DF8020010208DF80300694629
:1016B0001F48FFF765F808BD08B54FF6FF70ADF895
:1016C000000003208DF8020048208DF803006946D1
:1016D0001748FFF755F808BD70B504464FF4007081
:1016E00012490860401008602020091F0860104857
:1016F000C4602020091D0860091F0860C000086040
:10170000FFF7DAFF4FF480600849086008488068F6
:1017100085B20815091F0860FFF7BEFF4FF400707F
:101720000249091F0860284670BD0000140C0140E2
:101730000010014008B501211820FFF7D7FA012158
:101740002020FFF7D3FA4FF4E460ADF80000012049
:101750008DF8020010208DF803006946F848FFF765
:101760000FF8FFF799FFF6481030006840F4C460A6
:10177000F3491031086008BD10B5FFF7DBFF00200A
:10178000FFF7AAFFEF49088008460088A0F502414C
:10179000303902D1FFF7EFFD01E0FFF77CFE0020BA
:1017A000FFF79AFFE749088010BD01B5BDF80000BA
:1017B000E549088008BD01B5BDF80000E34908808F
:1017C00008BD30B504460D4621462020FFF7B7FD81
:1017D00029462120FFF7B3FD30BD4FF40071D84AF0
:1017E000143211604910121F116020211160D84974
:1017F000C8602021121D1160121F1160C900116004
:101800004900116070474FF40070CD4914310860F1
:10181000401008602020091F08602220CC49C860C1
:101820002020C74914310860091F0860C000086003
:101830004000086070472DE9F04306468946174688
:1018400000240025A046B04649464046FFF7B9FFB0
:1018500000BF1EE0FFF7D7FF00250FE037F81400A8
:101860000121A940084204D1B8480088FFF7B5FF1C
:1018700003E0B5480088FFF7B0FF6D1C102DEDD3D5
:1018800008F1010000F0FF0849464046FFF799FFC4
:10189000641C182CDED3BDE8F08370B505460E46F7
:1018A0001446A4F12000C4B204EB4400A94901EBA2
:1018B000001231462846FFF7BEFF70BDF0B507465F
:1018C0000C46002540F23F1609E0227831463846A2
:1018D000FFF7E3FFA6F1100086B2641C6D1C2078B0
:1018E00008B1142DF1D3F0BD10B504469AA12046DD
:1018F000FFF7E4FF10BD30B505460024002108467F
:10190000FFF75FFFFFF77FFF00BF03E02846FFF709
:1019100064FF641CB4F5963FF8D330BDF0B50446BF
:101920000D4616461F46B44206DBA01B401C81B282
:101930005020FFF704FD03E000215020FFF7FFFCDB
:1019400021465120FFF7FBFCBD4206DBE81B401C93
:1019500081B25220FFF7F3FC03E000215220FFF791
:10196000EEFC29465320FFF7EAFC29462046FFF704
:1019700028FFF0BD00B54FF4A073F022591EEF20F0
:10198000FFF7CCFF41F218010320FFF7D8FC00BDA0
:101990002DE9F0410646884615461F46002441467B
:1019A0003046FFF70EFF5FB9FFF72DFF00BF04E0E1
:1019B00065480088FFF711FF641CAC42F8D310E0C3
:1019C00000240CE0FFF71FFF5F480088FFF705FFCA
:1019D000701CC6B241463046FFF7F3FE641CAC42B1
:1019E000F0D3BDE8F081F0B505460E4617461C461B
:1019F0000023224631462846FFF7CAFFE919C8B23C
:101A0000002322463146FFF7C3FF01233A46314601
:101A10002846FFF7BDFF301B401C81B201233A4628
:101A20002846FFF7B5FFF0BD2DE9F04306460F4607
:101A300090460320A0EB4809002445466EE07A1941
:101A400091B23219D0B2FFF7BCFEFFF7DCFE3E4880
:101A50000088FFF7C2FE7A1B91B23219D0B2FFF7AD
:101A6000B0FEFFF7D0FE38480088FFF7B6FE7A19BF
:101A700091B2321BD0B2FFF7A4FEFFF7C4FE32488A
:101A80000088FFF7AAFE7A1B91B2321BD0B2FFF793
:101A900098FEFFF7B8FE2C480088FFF79EFE3A1923
:101AA00091B27219D0B2FFF78CFEFFF7ACFE264858
:101AB0000088FFF792FE3A1B91B27219D0B2FFF77D
:101AC00080FEFFF7A0FE20480088FFF786FE3A1947
:101AD00091B2721BD0B2FFF774FEFFF794FE1A4862
:101AE0000088FFF77AFE3A1B91B2721BD0B2FFF763
:101AF00068FEFFF788FE14480088FFF76EFEB9F114
:101B0000000F04DA062000EB8400814405E0601B2E
:101B10000A2101EB800081446D1E641CAC428ED909
:101B2000BDE8F08370B506460024002540F23F1161
:101B30000020FFF746FEFFF766FE00BF2DE0000025
:101B4000000C0140300000202C0000202E0000205E
:101B500000100140A21E000820202020202020206C
:101B600020202020202020202020202000000000F5
:101B700000250FE056F824000121A940084204D1B5
:101B80005F480088FFF729FE03E05E480088FFF702
:101B900024FE6D1C202DEDD3641CB4F5166FE7D325
:101BA00070BD70B50446002500266688A08846EA08
:101BB00000466589A08945EA0045701B46082C440B
:101BC00041F208010320FFF7BAFBFFF71CFE0025D6
:101BD00004E02088FFF701FEA41C6D1CB542F8D379
:101BE00041F218010320FFF7AAFB70BD10B54FF4B6
:101BF000007045490860401008602020091F0860F7
:101C000022204249C86020203F490860091F08601F
:101C1000C0000860FFF750FD4FF480603A4908604B
:101C20003A48806884B20815091F0860FFF734FD40
:101C30004FF400703449091F0860204610BD00B5FC
:101C400000211020FFF77BFB00211120FFF777FB1D
:101C500000211220FFF773FB00211320FFF76FFB19
:101C60001420FFF75DFB41F2B0711020FFF767FB16
:101C700040F237111120FFF762FB0520FFF750FB00
:101C800040F239111220FFF75AFB0520FFF748FBFD
:101C90004FF4E8511320FFF752FB13212920FFF7DF
:101CA0004EFB0520FFF73CFB40F273110720FFF7C6
:101CB00046FB00BD00B540F273110720FFF73FFB64
:101CC00000BD00B500210720FFF739FB00BD30B58E
:101CD000054600210846FFF774FDFFF794FD002438
:101CE00009E015F814206100491C695C42EA0120F2
:101CF000FFF773FD641CB4F5963FF2DB30BD0000C6
:101D00002E0000202C000020140C01400010014087
:101D100000B587B001210420FEF7E8FF0121480447
:101D2000FEF7F1FF18208DF80B000420ADF8080035
:101D300003208DF80A0002A93948FEF721FD04208E
:101D40008DF80B000820ADF8080002A93448FEF712
:101D500017FD26208DF8040003208DF805008DF86E
:101D6000060001208DF807004FF4964003900C20E8
:101D7000ADF816000020ADF81400ADF81200ADF873
:101D80001000ADF8180003A92648FFF75AF8012102
:101D90002448FFF7E2F8012240F225512148FFF7DD
:101DA000E8F807B000BD70B5044600250BE0615DA2
:101DB0001C48FFF73FF900BF80211A48FFF7A8F938
:101DC0000028F9D06D1C605D0028F0D170BD10B501
:101DD00040F225511348FFF7B1F9F8B11148FFF768
:101DE0002DF9C4B20D2C02D00CB10A2C0ED100205A
:101DF0000D490E4A126888540C4908600A48FFF7DA
:101E0000D2FF09491820FFF759FD07E0074801688C
:101E10000068401C054A10600348445410BD00008F
:101E20000008014000440040380000203400002039
:101E3000704770477047754600F028F8AE460500B9
:101E40006946534620F00700854618B020B5FFF7D5
:101E5000C7F9BDE820404FF000064FF000074FF0F3
:101E600000084FF0000B21F00701AC46ACE8C009B8
:101E7000ACE8C009ACE8C009ACE8C0098D467047C1
:101E80000446AFF300802046FEF777F9004870471C
:101E90004C00002001491820ABBEFEE726000200DE
:101EA000704700000000000000000000000000007B
:101EB0000000000000000000000000000000000022
:101EC0000000000000000000000000000000000012
:101ED00000000000800180018001800180018001FC
:101EE000800180018001800180018001800100006B
:101EF00000008001800100000000000000000000E0
:101F0000000000000000CC00CC00CC00CC00CC00D5
:101F1000CC000000000000000000000000000000F5
:101F200000000000000000000000000000000000B1
:101F30000000000000000000000000000000600C35
:101F4000600C600C30063006FE1FFE1F300638079E
:101F50001803FE1FFE1F180318038C018C018C014F
:101F6000000000008000E003F80F9C0E8C1C8C1811
:101F70008C009800F801E007800E801C8C188C18EB
:101F80009C18B80CF00FE0038000800000000000F7
:101F900000000000000000000E181B0C110C1106C0
:101FA0001106110311039B018E01C038C06C6044FF
:101FB0006044304430441844186C0C380000000071
:101FC00000000000E001F00338071806180630038F
:101FD000F001F000F8009C310E33061E061C061CB2
:101FE000063FFC73F021000000000000000000002C
:101FF0000000000000000C000C000C000C000C00A5
:102000000C000000000000000000000000000000C4
:1020100000000000000000000000000000000000C0
:1020200000000000000200038001C000C00060004A
:1020300060003000300030003000300030003000F0
:10204000300060006000C000C0008001000300029A
:102050000000000020006000C0008001800100033B
:102060000003000600060006000600060006000643
:1020700000060003000380018001C0006000200012
:102080000000000000000000000000000000C00090
:10209000C000D806F807E001300338070000000050
:1020A0000000000000000000000000000000000030
:1020B000000000000000000000000000000080019F
:1020C0008001800180018001FC3FFC3F8001800194
:1020D000800180018001000000000000000000007D
:1020E00000000000000000000000000000000000F0
:1020F00000000000000000000000000000000000E0
:10210000000000008001800100010001800000004B
:1021100000000000000000000000000000000000BF
:1021200000000000000000000000E007E0070000E1
:10213000000000000000000000000000000000009F
:10214000000000000000000000000000000000008F
:10215000000000000000000000000000000000007F
:1021600000000000C000C0000000000000000000EF
:1021700000000000000C000C000600060006000332
:10218000000300038003800180018001C000C000C3
:10219000C0006000600000000000000000000000BF
:1021A00000000000E003F007380E180C0C180C18A3
:1021B0000C180C180C180C180C180C180C18180CFF
:1021C000380EF007E00300000000000000000000EF
:1021D0000000000000018001C001F00198018801A9
:1021E00080018001800180018001800180018001E7
:1021F000800180018001000000000000000000005C
:1022000000000000E003F80F180C0C180C18001860
:102210000018000C000600038001C00060003000C0
:102220001800FC1FFC1F0000000000000000000060
:1022300000000000E001F807180E0C0C0C0C000C5C
:102240000006C003C007000C001800180C180C187A
:10225000180CF807E0030000000000000000000078
:1022600000000000000C000E000F000F800DC00CDD
:10227000600C600C300C180C0C0CFC3FFC3F000C8C
:10228000000C000C000C000000000000000000002A
:1022900000000000F80FF80F180018000C00EC0305
:1022A000FC071C0E001C0018001800180C181C0C51
:1022B000180EF807E0030000000000000000000016
:1022C00000000000C007F00F381C181818000C00A0
:1022D000CC03EC0F3C0E1C1C0C180C180C18181C12
:1022E000380EF007E00300000000000000000000CE
:1022F00000000000FC1FFC1F000C0006000600038D
:1023000080038001C001C000E00060006000700038
:10231000300030003000000000000000000000002D
:1023200000000000E003F007380E180C180C180C21
:102330003806F007F007180C0C180C180C180C18BD
:10234000380CF80FE003000000000000000000005F
:1023500000000000E003F007380E1C0C0C180C18ED
:102360000C181C1C381EF81BE0190018000C000C7F
:102370001C0EF807F0010000000000000000000043
:1023800000000000000000000000000000008001CC
:1023900080010000000000000000000000000000BC
:1023A000000080018001000000000000000000002B
:1023B000000000000000000000000000000080019C
:1023C000800100000000000000000000000000008C
:1023D0000000800180010001000180000000000079
:1023E00000000000000000000000000000000000ED
:1023F00000000010001C800FE003F8001800F80037
:10240000E003800F001C001000000000000000002E
:1024100000000000000000000000000000000000BC
:102420000000F81F000000000000F81F000000007E
:10243000000000000000000000000000000000009C
:10244000000000000000000000000000000000008C
:10245000000008003800F001C007001F0018001F2E
:10246000C007F00138000800000000000000000074
:1024700000000000E003F80F180C0C180C180018EE
:10248000000C000600038001C000C000C000000076
:102490000000C000C00000000000000000000000BC
:1024A000000000000000E00718180420C229224A9A
:1024B000114409440944094409221113E20C024061
:1024C00004201818E00700000000000000000000D1
:1024D0000000000080038003C006C006C006600C38
:1024E000600C301830183018F83FF83F1C700C6042
:1024F0000C6006C006C000000000000000000000E4
:1025000000000000FC03FC0F0C0C0C180C180C183D
:102510000C0CFC07FC0F0C180C300C300C300C3081
:102520000C18FC1FFC070000000000000000000069
:1025300000000000C007F01F38381C300C70066027
:1025400006000600060006000600060006600C7085
:102550001C30F01FE0070000000000000000000039
:1025600000000000FE03FE0F060E061806180630D7
:1025700006300630063006300630063006180618DB
:10258000060EFE0FFE030000000000000000000029
:1025900000000000FC3FFC3F0C000C000C000C0095
:1025A0000C00FC1FFC1F0C000C000C000C000C00AD
:1025B0000C00FC3FFC3F0000000000000000000099
:1025C00000000000F83FF83F18001800180018003D
:1025D0001800F81FF81F180018001800180018003D
:1025E00018001800180000000000000000000000A3
:1025F00000000000E00FF83F3C780E6006E007C0E6
:102600000300030003FE03FE03C007C006C00EC0A4
:102610003CF0F83FE00F0000000000000000000068
:10262000000000000C300C300C300C300C300C3042
:102630000C30FC3FFC3F0C300C300C300C300C30BC
:102640000C300C300C3000000000000000000000D6
:102650000000000080018001800180018001800174
:102660008001800180018001800180018001800162
:1026700080018001800100000000000000000000D7
:102680000000000000060006000600060006000626
:1026900000060006000600060006000618061806DA
:1026A0003807F003E0010000000000000000000017
:1026B0000000000006300618060C06060603860118
:1026C000C60066007600DE008E0106030606060CD4
:1026D0000618063006600000000000000000000040
:1026E000000000001800180018001800180018005A
:1026F000180018001800180018001800180018001A
:102700001800F81FF81F0000000000000000000083
:10271000000000000EE01EF01EF01EF036D836D885
:1027200036D836D866CC66CC66CCC6C6C6C6C6C653
:10273000C6C686C386C3000000000000000000007B
:10274000000000000C301C303C303C306C306C30F1
:10275000CC30CC308C310C330C330C360C360C3C7A
:102760000C3C0C380C3000000000000000000000A1
:1027700000000000E007F81F1C380E70066003C060
:1027800003C003C003C003C003C003C006600E70D3
:102790001C38F81FE00700000000000000000000E7
:1027A00000000000FC0FFC1F0C380C300C300C300B
:1027B0000C300C18FC1FFC070C000C000C000C006B
:1027C0000C000C000C0000000000000000000000E5
:1027D00000000000E007F81F1C380E70066003E0E0
:1027E00003C003C003C003C003C007E006630E3F7D
:1027F0001C3CF83FE0F700C00000000000000000B3
:1028000000000000FE0FFE1F0638063006300630BE
:102810000638FE1FFE0706030606060C06180618F5
:1028200006300630066000000000000000000000D6
:1028300000000000E003F80F1C0C0C180C180C0032
:102840001C00F803E00F001E0038063006300E3082
:102850001C1CF80FE0070000000000000000000052
:1028600000000000FE7FFE7F80018001800180016A
:102870008001800180018001800180018001800150
:1028800080018001800100000000000000000000C5
:10289000000000000C300C300C300C300C300C30D0
:1028A0000C300C300C300C300C300C300C300C3048
:1028B0001818F81FE00700000000000000000000EA
:1028C0000000000003600630063006300C180C18BB
:1028D0000C18180C180C380E300630067007600300
:1028E0006003C001C0010000000000000000000003
:1028F000000000000360C361C361C36166336633D7
:1029000066336633663366336C1B6C1B6C1B2C1A88
:102910003C1E380E380E00000000000000000000D1
:10292000000000000FE00C7018303018700C600EC2
:10293000C00780038003C003E006700C301C181829
:102940000C300E6007E000000000000000000000F6
:102950000000000003C006600C301C383818300C32
:102960006006E007C00380018001800180018001D2
:1029700080018001800100000000000000000000D4
:1029800000000000FC7FFC7F006000300018000C9D
:10299000000600038001C0006000300018000C0039
:1029A0000600FE7FFE7F0000000000000000000027
:1029B00000000000E003E0036000600060006000D1
:1029C0006000600060006000600060006000600007
:1029D000600060006000600060006000E003E003F1
:1029E0000000000030003000600060006000C000A7
:1029F000C000C000C001800180018001000300030D
:102A000000030006000600000000000000000000B7
:102A100000000000E003E0030003000300030003E4
:102A2000000300030003000300030003000300038E
:102A3000000300030003000300030003E003E003BE
:102A4000000000000000C001C001600360036003DB
:102A500030063006180C180C0000000000000000C2
:102A60000000000000000000000000000000000066
:102A70000000000000000000000000000000000056
:102A80000000000000000000000000000000000046
:102A900000000000FFFFFFFF00000000000000003A
:102AA000000000000C000C000C000C000C000C00DE
:102AB0000000000000000000000000000000000016
:102AC0000000000000000000000000000000000006
:102AD0000000000000000000000000000000F00303
:102AE000F8071C0C0C0C000FF00FF80C0C0C0C0C65
:102AF0001C0FF80FF018000000000000000000009C
:102B00000000000018001800180018001800D80372
:102B1000F80F380C1818181818181818181818184A
:102B2000380CF80FD803000000000000000000007F
:102B30000000000000000000000000000000C003D2
:102B4000F007300E180C1800180018001800180CA8
:102B5000300EF007C003000000000000000000007D
:102B60000000000000180018001800180018C01B12
:102B7000F01F301C181818181818181818181818DA
:102B8000301CF01FC01B000000000000000000000F
:102B90000000000000000000000000000000C00372
:102BA000F00F300C1818F81FF81F1800180038180C
:102BB000301CF00FC0070000000000000000000003
:102BC00000000000800FC00FC000C000C000F00770
:102BD000F007C000C000C000C000C000C000C000BE
:102BE000C000C000C00000000000000000000000A5
:102BF0000000000000000000000000000000E00DE8
:102C0000F80F180E0C0C0C0C0C0C0C0C0C0C0C0C07
:102C1000180EF80FE00D000C0C0C1C06F807F00164
:102C20000000000018001800180018001800D8074D
:102C3000F80F381C18181818181818181818181819
:102C400018181818181800000000000000000000F4
:102C500000000000C000C000000000000000C00034
:102C6000C000C000C000C000C000C000C000C00064
:102C7000C000C000C0000000000000000000000014
:102C800000000000C000C000000000000000C00004
:102C9000C000C000C000C000C000C000C000C00034
:102CA000C000C000C000C000C000C000F800780034
:102CB000000000000C000C000C000C000C000C0CC0
:102CC0000C060C038C01CC006C00FC009C018C03F6
:102CD0000C030C060C0C00000000000000000000BB
:102CE00000000000C000C000C000C000C000C00064
:102CF000C000C000C000C000C000C000C000C000D4
:102D0000C000C000C0000000000000000000000083
:102D100000000000000000000000000000007C3CFB
:102D2000FF7EC7E383C183C183C183C183C183C1E4
:102D300083C183C183C100000000000000000000C7
:102D400000000000000000000000000000009807E4
:102D5000F80F381C181818181818181818181818F8
:102D600018181818181800000000000000000000D3
:102D70000000000000000000000000000000C00390
:102D8000F00F300C181818181818181818181818E8
:102D9000300CF00FC0030000000000000000000035
:102DA0000000000000000000000000000000D80348
:102DB000F80F380C181818181818181818181818A8
:102DC000380CF80FD8031800180018001800180065
:102DD0000000000000000000000000000000C01B18
:102DE000F01F301C18181818181818181818181868
:102DF000301CF01FC01B0018001800180018001825
:102E00000000000000000000000000000000B0070B
:102E1000F00370003000300030003000300030002F
:102E20003000300030000000000000000000000012
:102E30000000000000000000000000000000E003AF
:102E4000F003380E180C3800F003C007000C180C03
:102E5000380EF007E0030000000000000000000052
:102E60000000000000008000C000C000C000F007AB
:102E7000F007C000C000C000C000C000C000C0001B
:102E8000C000C00780070000000000000000000034
:102E90000000000000000000000000000000181802
:102EA00018181818181818181818181818181818A2
:102EB000381CF01FE01900000000000000000000B6
:102EC00000000000000000000000000000000C18DE
:102ED000180C180C180C300630063006600360031E
:102EE0006003C001C00100000000000000000000FD
:102EF0000000000000000000000000000000C141D0
:102F0000C141C36163636363636336363636363605
:102F10001C1C1C1C1C1C0000000000000000000009
:102F200000000000000000000000000000001C384D
:102F3000381C300C600660036003600360036006A9
:102F4000300C381C1C38000000000000000000009D
:102F50000000000000000000000000000000183029
:102F6000301830187018600C600CE00CC006C006F9
:102F700080038003800380018001C001F0007000A5
:102F80000000000000000000000000000000FC1F26
:102F9000FC1F000C000600038001C0006000300030
:102FA0001800FC1FFC1F00000000000000000000D3
:102FB0000000000000038001C000C000C000C0008D
:102FC000C000C00060006000300060004000C00031
:102FD000C000C000C000C000C000800100030000AD
:102FE00000000000800180018001800180018001DB
:102FF00080018001800180018001800180018001C9
:1030000080018001800180018001800180018001B8
:10301000000000006000C000C0018001800180014C
:10302000800180010003000300060003000180010D
:1030300080018001800180018001C00060000000EB
:103040000000000000000000000000000000000080
:103050000000F010F81F080F000000000000000042
:103060000000000000000000000000000000000060
:10307000000000009430000800000020380000002C
:1030800028010008CC300008380000207806000035
:10309000440100080000000000A24A0400000000F3
:1030A00000000000010203040607080900000000F8
:1030B00001020304010203040607080902040608CA
:0C30C0000000FFFF000000000000000006
:04000005080000ED02
:00000001FF
