:020000040800F2
:1000000068040020C50600080D0300080F0300085F
:1000100013030008170300081B030008000000007A
:100020000000000000000000000000001F030008A6
:100030002103000800000000230300082503000836
:10004000DF060008DF060008DF06000831030008AD
:10005000DF060008DF060008AF030008D903000828
:1000600003040008DF060008DF060008DF060008BA
:10007000DF060008DF060008DF060008DF060008CC
:10008000DF060008DF060008DF060008DF060008BC
:10009000DF060008DF060008DF0600082D04000860
:1000A000DF060008DF060008DF060008DF0600089C
:1000B000DF060008DF060008DF060008DF0600088C
:1000C000DF060008DF060008DF060008DF0600087C
:1000D000DF060008DF0600085D030008DF060008F1
:1000E000DF060008DF060008DF060008DFF80CD096
:1000F00003F058FE00480047310100086804002062
:1001000010B5002807DA0A07140E614A00F00F0341
:100110001B1FD45403E00A07130E5E4A135410BD8C
:100120005D49086000BF5C4909680029FBD1704740
:100130005A4800684FF47A71B0FBF1F5B5F1807F51
:1001400000D311E025F07F40401E4FF0E0214861D0
:100150000F214FF0FF30FFF7D3FF00204FF0E021D9
:1001600088610720086100BF0021481EFFF7C8FF13
:100170004FF4A06001F01AFA01F058F900F0ACFF5A
:1001800000F0F8FF01F0D8F801F0BEF901F06EF8C8
:1001900000F0D6FC1F2000F092FD4FF6FF7000F03B
:1001A000E8FC1F2000F0EBFC3DA1182000F06AFDE8
:1001B00000214FF6FF7000F0B8FF3FA003F036FEBD
:1001C0001021414801F085FE6420FFF7A9FF1021AE
:1001D0003D4801F07CFE6420FFF7A2FF57E03B485A
:1001E0000078012812D101F065F9074603F0FCFB05
:1001F00005462A460B4636A13A4803F027FE394900
:10020000482000F03FFD0020304908703648007853
:10021000012806D101F0CAF800214FF6FF7000F066
:1002200084FF32480078012831D1314931A003F0F0
:10023000FDFD31A12E4803F0D7FA40B100214FF661
:10024000FF7000F072FF0121080200F06EFF2CA188
:10025000274803F0C9FA40B100214FF6FF7000F0C3
:1002600064FF0121480200F060FF00201F49087070
:10027000002404E020201E490855601CC4B2142C40
:10028000F8DB012240F225511F4803F084F9A6E76C
:1002900018ED00E000E400E0080000200C00002061
:1002A000202020202020507261637469636535200E
:1002B000202020200000000041726520796F752009
:1002C0004F4B3F0A00000000000C014002000020DC
:1002D000202020202020563A252E32662020202063
:1002E0002020000054000020010000200400002015
:1002F0004000002025730A004C4544314F4E000059
:100300004C4544324F4E000000440040704700BF4F
:10031000FEE700BFFEE700BFFEE700BFFEE7704755
:10032000704770474D480068401E4C490860704750
:1003300010B501204A49087002F02AF968B101207D
:100340004849087002F0BCF84749884202D10020B1
:1003500002F0BFF8012002F02BF910BD10B540F2F9
:100360002551424803F0FCF900B3404803F078F906
:10037000C4B23F4800783F490978884201D00D2C2B
:100380000CD101203C490870002039490870002236
:1003900040F22551354803F0FEF807E03448017873
:1003A0000078401C324A10703448445410BD10B5D7
:1003B000012001F067FC70B10A20FFF7B1FE0121B6
:1003C0002F4801F06AFD18B92EA1A82000F05AFCB0
:1003D000012001F068FC10BD10B5022001F052FCB4
:1003E00070B10A20FFF79CFE02212C4801F055FD58
:1003F00018B92BA1A82000F045FC022001F053FC05
:1004000010BD10B5042001F03DFC70B10A20FFF7CB
:1004100087FE0421214801F040FD18B926A1A8203B
:1004200000F030FC042001F03EFC10BD10B54FF48C
:10043000807001F027FC80B10A20FFF771FE4FF4B5
:1004400080710F4801F029FD18B921A1A82000F002
:1004500019FC4FF4807001F026FC10BD080000204C
:1004600002000020010000207F51010000440040F4
:1004700003000020000000200400002040000020B5
:100480000008014020427574746F6E3120707265EF
:10049000737365642E2E2E2000000000000C0140B6
:1004A00020427574746F6E33207072657373656467
:1004B0002E2E2E200000000020427574746F6E34C2
:1004C00020707265737365642E2E2E20000000006C
:1004D00020427574746F6E32207072657373656438
:1004E0002E2E2E20000000000CB500200190009060
:1004F0006B48006840F480306949086000BF684874
:10050000006800F4003000900198401C01900098B1
:1005100018B90198B0F5A06FF1D16148006810F4E6
:10052000003F02D00120009001E0002000900098E0
:10053000012842D15B48006840F01000594908602A
:100540000846006820F0030008600846006840F094
:1005500002000860524840685149486008464068B7
:1005600048600846406840F480604860084640683B
:1005700020F47C1048600846406840F4E810486069
:100580000846006840F08070086000BF444800687A
:1005900010F0007FFAD04248406820F00300404944
:1005A00048600846406840F00200486000BF3C4890
:1005B000406800F00C000828F9D10CBD10B5FFF719
:1005C00093FF10BD10B53648006840F00100344973
:1005D0000860084640683449084031494860084688
:1005E0000068324908402E4908600846006820F437
:1005F000802008600846406820F4FE0048604FF400
:100600001F008860FFF7DAFF4FF00060284908609C
:1006100010BD10B5002100200022214B5B6803F0C3
:100620000C0121B1042906D0082928D107E0214B6B
:10063000214C236027E01F4B1F4C236023E0184B05
:100640005B6803F47010164B5B6803F4803202237E
:1006500003EB904022B9194B4343174C23600DE044
:100660000F4B5B6813F4003F04D0144B4343124C10
:10067000236003E00F4B43430F4C236003E00D4B1B
:100680000D4C236000BF00BF054B5B68C3F3031331
:100690000B4CE15C084B1B68CB40074C236010BD42
:1006A00000100240002002400000FFF8FFFFF6FEAD
:1006B00008ED00E000127A000C00002000093D0067
:1006C000100000200648804706480047FEE7FEE786
:1006D000FEE7FEE7FEE7FEE7FEE7FEE7FEE7FEE7F2
:1006E000C5050008ED000008002109E0002201E036
:1006F000531C9AB240F6B8339A42F9DB4B1C99B2BC
:100700008142F3DB70474FF40072FA4B1A605210CB
:100710001A6020221B1F1A60F74AD06020221B1D7E
:100720001A601B1F1A60D2001A60F34AD16020229F
:100730001B1D1A601B1F1A60D2001A60704700B59B
:1007400001210020FFF7DFFF4FF47A70FFF7CCFFA5
:1007500000210120FFF7D7FF41F290711020FFF731
:10076000D2FF4FF41C516020FFF7CDFF0121612023
:10077000FFF7C9FF02214620FFF7C5FF48F210012D
:100780001320FFF7C0FF48F2FE011220FFF7BBFF66
:100790004FF4A0610220FFF7B6FF41F230010320C1
:1007A000FFF7B1FF40F203313020FFF7ACFF40F21A
:1007B00003313120FFF7A7FF40F203313220FFF76A
:1007C000A2FF4FF440713320FFF79DFF0321342037
:1007D000FFF799FF40F203313520FFF794FF142112
:1007E0003620FFF790FF40F203313720FFF78BFFF1
:1007F00040F203313820FFF786FF40F20331392001
:10080000FFF781FF4FF440713A20FFF77CFF03218F
:100810003B20FFF778FF40F203313C20FFF773FFE6
:100820004FF4A0513D20FFF76EFF4FF4007192206E
:10083000FFF769FF40F203319320FFF764FF40F6B2
:100840000D019020FFF75FFF41F218010320FFF731
:100850005AFF40F273110720FFF755FF00BD00B5A6
:1008600043F20801E320FFF74EFF1221E720FFF7D4
:100870004AFF41F23121EF20FFF745FF002101201F
:10088000FFF741FF4FF4E0610220FFF73CFF41F228
:1008900030010320FFF737FF00210420FFF733FF6B
:1008A00040F207210820FFF72EFF00210920FFF763
:1008B0002AFF00210A20FFF726FF00210C20FFF766
:1008C00022FF00210D20FFF71EFF00210F20FFF760
:1008D0001AFF00211020FFF716FF07211120FFF754
:1008E00012FF00211220FFF70EFF00211320FFF757
:1008F0000AFF4FF47A70FFF7F7FE41F29061102083
:10090000FFF701FF40F227211120FFF7FCFE322004
:10091000FFF7EAFE1D211220FFF7F5FE3220FFF758
:10092000E3FE4FF400611320FFF7EDFE14212920B0
:10093000FFF7E9FE0B212B20FFF7E5FE3220FFF742
:10094000D3FE00212020FFF7DEFE00212120FFF74B
:10095000DAFE07213020FFF7D6FE40F20771312082
:10096000FFF7D1FE06213220FFF7CDFE40F20471E1
:100970003520FFF7C8FE41F604713620FFF7C3FEAD
:1009800004213720FFF7BFFE00213820FFF7BBFE10
:1009900040F206713920FFF7B6FE40F201713C20AB
:1009A000FFF7B1FE0F213D20FFF7ADFE00215020E3
:1009B000FFF7A9FEEF215120FFF7A5FE00215220ED
:1009C000FFF7A1FE40F23F115320FFF79CFE4FF4CA
:1009D0001C516020FFF797FE01216120FFF793FE75
:1009E00000216A20FFF78FFE00218020FFF78BFE99
:1009F00000218120FFF787FE00218220FFF783FE80
:100A000000218320FFF77FFE00218420FFF77BFE7B
:100A100000218520FFF777FE10219020FFF773FE5D
:100A200000219220FFF76FFE03219320FFF76BFE5A
:100A30004FF488719520FFF766FE00219720FFF79D
:100A400062FE00219820FFF75EFE41F218010320AC
:100A5000FFF759FE40F273110720FFF754FE00BD67
:100A600008B54FF6FF70ADF8000003208DF80200C6
:100A700010208DF8030069461F4801F07DF908BD7C
:100A800008B54FF6FF70ADF8000003208DF80200A6
:100A900048208DF803006946174801F06DF908BD3C
:100AA00070B504464FF400701249086040100860A9
:100AB0002020091F08601048C4602020091D08601C
:100AC000091F0860C0000860FFF7DAFF4FF480607C
:100AD000084908600848806885B20815091F086041
:100AE000FFF7BEFF4FF400700249091F0860284657
:100AF00070BD0000140C01400010014008B5012138
:100B0000182001F055FC0121202001F051FC4FF488
:100B1000E460ADF8000001208DF8020010208DF88F
:100B200003006946F84801F027F9FFF799FFF648F6
:100B30001030006840F4C460F3491031086008BD0B
:100B400010B5FFF7DBFF0020FFF7AAFFEF49088091
:100B500008460088A0F50241303902D1FFF7EFFDC9
:100B600001E0FFF77CFE0020FFF79AFFE7490880CD
:100B700010BD01B5BDF80000E549088008BD01B50C
:100B8000BDF80000E349088008BD30B504460D46B5
:100B900021462020FFF7B7FD29462120FFF7B3FDAE
:100BA00030BD4FF40071D84A143211604910121F41
:100BB000116020211160D849C8602021121D1160E8
:100BC000121F1160C90011604900116070474FF495
:100BD0000070CD4914310860401008602020091FC2
:100BE00008602220CC49C8602020C7491431086021
:100BF000091F0860C00008604000086070472DE9C8
:100C0000F04306468946174600240025A046B04614
:100C100049464046FFF7B9FF00BF1EE0FFF7D7FF88
:100C200000250FE037F814000121A940084204D143
:100C3000B8480088FFF7B5FF03E0B5480088FFF724
:100C4000B0FF6D1C102DEDD308F1010000F0FF087E
:100C500049464046FFF799FF641C182CDED3BDE8D7
:100C6000F08370B505460E461446A4F12000C4B2C8
:100C700004EB4400A94901EB001231462846FFF776
:100C8000BEFF70BDF0B507460C46002540F23F168A
:100C900009E0227831463846FFF7E3FFA6F110005D
:100CA00086B2641C6D1C207808B1142DF1D3F0BD00
:100CB00010B504469AA12046FFF7E4FF10BD30B5F9
:100CC0000546002400210846FFF75FFFFFF77FFF7E
:100CD00000BF03E02846FFF764FF641CB4F5963FAD
:100CE000F8D330BDF0B504460D4616461F46B44253
:100CF00006DBA01B401C81B25020FFF704FD03E07F
:100D000000215020FFF7FFFC21465120FFF7FBFC9C
:100D1000BD4206DBE81B401C81B25220FFF7F3FC0A
:100D200003E000215220FFF7EEFC29465320FFF795
:100D3000EAFC29462046FFF728FFF0BD00B54FF436
:100D4000A073F022591EEF20FFF7CCFF41F21801EB
:100D50000320FFF7D8FC00BD2DE9F0410646884688
:100D600015461F46002441463046FFF70EFF5FB987
:100D7000FFF72DFF00BF04E065480088FFF711FF73
:100D8000641CAC42F8D310E000240CE0FFF71FFF16
:100D90005F480088FFF705FF701CC6B24146304629
:100DA000FFF7F3FE641CAC42F0D3BDE8F081F0B570
:100DB00005460E4617461C46002322463146284665
:100DC000FFF7CAFFE919C8B2002322463146FFF7F0
:100DD000C3FF01233A4631462846FFF7BDFF301BCB
:100DE000401C81B201233A462846FFF7B5FFF0BD0B
:100DF0002DE9F04306460F4690460320A0EB480934
:100E0000002445466EE07A1991B23219D0B2FFF74C
:100E1000BCFEFFF7DCFE3E480088FFF7C2FE7A1BEF
:100E200091B23219D0B2FFF7B0FEFFF7D0FE3848CA
:100E30000088FFF7B6FE7A1991B2321BD0B2FFF7E5
:100E4000A4FEFFF7C4FE32480088FFF7AAFE7A1B13
:100E500091B2321BD0B2FFF798FEFFF7B8FE2C48D4
:100E60000088FFF79EFE3A1991B27219D0B2FFF7CF
:100E70008CFEFFF7ACFE26480088FFF792FE3A1B77
:100E800091B27219D0B2FFF780FEFFF7A0FE2048A2
:100E90000088FFF786FE3A1991B2721BD0B2FFF7B5
:100EA00074FEFFF794FE1A480088FFF77AFE3A1B9B
:100EB00091B2721BD0B2FFF768FEFFF788FE1448AC
:100EC0000088FFF76EFEB9F1000F04DA062000EB90
:100ED0008400814405E0601B0A2101EB800081440D
:100EE0006D1E641CAC428ED9BDE8F08370B5064619
:100EF0000024002540F23F110020FFF746FEFFF7D7
:100F000066FE00BF2DE00000000C01402400002020
:100F1000200000202200002000100140404700086F
:100F200020202020202020202020202020202020C1
:100F3000202020200000000000250FE056F82400AB
:100F40000121A940084204D15F480088FFF729FE2B
:100F500003E05E480088FFF724FE6D1C202DEDD3D2
:100F6000641CB4F5166FE7D370BD70B50446002558
:100F700000266688A08846EA00466589A08945EA79
:100F80000045701B46082C4441F208010320FFF77E
:100F9000BAFBFFF71CFE002504E02088FFF701FEE6
:100FA000A41C6D1CB542F8D341F218010320FFF7D1
:100FB000AAFB70BD10B54FF40070454908604010A1
:100FC00008602020091F086022204249C8602020B4
:100FD0003F490860091F0860C0000860FFF750FD26
:100FE0004FF480603A4908603A48806884B2081536
:100FF000091F0860FFF734FD4FF400703449091FE2
:101000000860204610BD00B500211020FFF77BFBD3
:1010100000211120FFF777FB00211220FFF773FB5F
:1010200000211320FFF76FFB1420FFF75DFB41F257
:10103000B0711020FFF767FB40F237111120FFF766
:1010400062FB0520FFF750FB40F239111220FFF739
:101050005AFB0520FFF748FB4FF4E8511320FFF738
:1010600052FB13212920FFF74EFB0520FFF73CFB25
:1010700040F273110720FFF746FB00BD00B540F2B8
:1010800073110720FFF73FFB00BD00B500210720CB
:10109000FFF739FB00BD30B5054600210846FFF7D4
:1010A00074FDFFF794FD002409E015F81420610099
:1010B000491C695C42EA0120FFF773FD641CB4F52A
:1010C000963FF2DB30BD000022000020200000200F
:1010D000140C01400010014008B50121102001F05E
:1010E00067F910208DF803004FF47F40ADF8000041
:1010F00003208DF8020069461C4800F03DFE4FF6C3
:10110000FF711A4800F0E3FE0420ADF800006946C4
:10111000174800F031FE4FF6FF71144800F0D7FE7B
:101120000421134800F0D5FE08BD70B505460C46F5
:10113000012C0CD129460D4800F0CBFE04210C48AF
:1011400000F0C5FE04210A4800F0C3FE0CE05CB9C3
:101150002946064800F0BBFE0421054800F0B7FE12
:101160000421034800F0B5FE70BD000000100140EE
:10117000001401401FB501210C2001F019F90121D3
:10118000084601F015F904208DF80F000120ADF894
:101190000C0003A9334800F0EFFD0021084600F0E1
:1011A000FFFE012000900C208DF8050000208DF836
:1011B000040001208DF80600684600F0FDFC0620C2
:1011C0008DF8080002208DF809008DF80A00012032
:1011D0008DF80B0002A800F0EEF94FF48070ADF826
:1011E0000C0003A91F4800F0C7FD0821002000F0F3
:1011F000D7FE4FF480700090684600F0DDFC1720A9
:101200008DF8080002A800F0D6F90220ADF80C0015
:1012100003A9154800F0B0FD0121084600F0C0FE0A
:1012200002200090684600F0C7FC07208DF80800F7
:1012300002A800F0C0F90420ADF80C0003A90A4888
:1012400000F09AFD0221012000F0AAFE0420009087
:10125000684600F0B1FC08208DF8080002A800F0F4
:10126000AAF91FBD00080140000C014000B587B07D
:101270000121042001F09CF80121480401F0A5F8A7
:101280000820ADF8180004208DF81B0006A9284896
:1012900000F072FD0420ADF8180018208DF81B0036
:1012A00003208DF81A0006A9214800F065FD2620CC
:1012B0008DF8040001208DF807008DF805008DF8E9
:1012C000060001A800F077F94FF496400290002044
:1012D000ADF814000C20ADF812000020ADF810009D
:1012E000ADF80E00ADF80C0002A9124802F0BBF8F0
:1012F000012240F225510F4802F04DF901210D481D
:1013000002F03DF907B000BD70B504460D4640211E
:10131000084802F00FFAE1B2064802F09DF900BF5A
:101320004021044802F006FA0028F9D0204670BD9A
:10133000000801400044004008B501214FF0C050B2
:1013400001F043F8012000F06EFE00F0C5FB012023
:1013500000F0B4FF00BF612000F003FF0028FAD0C6
:101360004FF4007000F0ADFF012000F0B0FF01F07D
:10137000EBF801F0E1F80121084601F081F801F0F5
:10138000DBF849F6404001F0B1F801F0D5F8032050
:101390008DF8000000208DF801008DF8020001207A
:1013A0008DF80300684600F006F908BDF0B587B077
:1013B00001F086F8C4B24FF4616094FBF0F0C5B25E
:1013C0004FF4616094FBF0F100FB11403C2190FB75
:1013D000F1F0C6B24FF4616094FBF0F100FB1140F4
:1013E0003C2190FBF1F201FB1200C7B233462A46C2
:1013F00007A102A8009702F029FD02A99020FFF79B
:1014000041FC00214FF6FF70FFF78FFE07B0F0BDE3
:10141000202020202020543A252E32643A252E32D6
:10142000643A252E326420202020200000B587B0A9
:101430000121082000F0BCFF0121480200F0B8FFA4
:101440000120ADF8040000208DF8070001A92A480A
:1014500000F092FC002002908DF80C008DF80D0039
:101460004FF4602004900020059001208DF81800B2
:1014700002A9224800F02FF90523012208211F4864
:1014800000F0C1F901211D4800F051F91B4800F09E
:1014900070F900BF194800F071F90028FAD1174817
:1014A00000F076F900BF154800F077F90028FAD16E
:1014B00007B000BD2DE9F05F0121104800F077F979
:1014C0000A20FEF72DFE0D4800F004FA834602F0D4
:1014D0007EFA80464FF06632094B02F097F90646D5
:1014E0000022084B02F004FA044602F090FA824609
:1014F0005046BDE8F09F0000000C01400024014070
:1015000066660A4000FEAF4000B589B0012108467A
:1015100000F05BFF0121042000F04AFF0620ADF837
:10152000200018208DF8230003208DF8220008A940
:101530001D4800F021FC40F2F310ADF8180041F610
:101540001F40ADF814000020ADF81A00ADF81600E9
:1015500005A94FF0804001F009F9012247219007C9
:1015600001F007FD7020ADF804000120ADF8060081
:101570000020ADF80A000220ADF80C00C001ADF863
:10158000100001A9800501F070F901A94FF0804019
:1015900001F0B8F90121880701F044FC0121880716
:1015A00001F04CFC09B000BD000801403149014385
:1015B000314A1160704770B5002100230F22C478B2
:1015C0000CB32D4C246804F4E064C4F5E064210AF3
:1015D000C1F10403CA40447804FA03F1847814404A
:1015E00021430901254C0678A155047804F01F0514
:1015F0000124AC4005786D114FF0E02606EB85051F
:10160000C5F8004109E0047804F01F050124AC404E
:101610001B4D0678761145F8264070BD194A0A40E0
:101620000243154B1B1F1A60704739B1124A121D35
:1016300012680243104B1B1D1A6006E00E4A121D71
:10164000126882430C4B1B1D1A607047042808D196
:101650004FF0E021096941F004014FF0E0221161EF
:1016600007E04FF0E021096921F004014FF0E0228A
:10167000116170470000FA050CED00E000E400E0A5
:1016800080E100E080FFFF1F10B50446FA48844265
:1016900008D10121401500F0A5FE0021601500F0E1
:1016A000A1FE17E0F548844208D10121001500F0A1
:1016B00099FE0021201500F095FE0BE0F0488442D1
:1016C00008D10121C80300F08DFE00214FF4004035
:1016D00000F088FE10BD30B502460020002350689F
:1016E000E84C20400D790C6844EA05242043506002
:1016F0009068E54C2040D1E902542C434D7944EAEE
:10170000450420439060D06A20F470000C7C641E75
:10171000E4B2234340EA0350D06230BD00210160AF
:10172000017141718160C16001210174704721B173
:10173000826842F00102826003E0826822F00102C6
:101740008260704721B1826842F48072826003E057
:10175000826822F480728260704710B50023CBB299
:101760001AB144681C43446002E044689C434460EE
:1017700010BD816841F0080181607047014600207A
:101780008A6812F0080F01D0012000E000207047A5
:10179000816841F0040181607047014600208A6839
:1017A00012F0040F01D0012000E00020704721B1A9
:1017B000826842F4A002826003E0826822F4A00200
:1017C00082607047014600208A6812F4800F01D0C1
:1017D000012000E00020704710B50A4600210023D8
:1017E000416821F46041531E41EA4331416010BD1C
:1017F00021B1426842F40062426003E0426822F490
:10180000006242607047F0B504460D46002000219A
:10181000092D11DDE068A5F10A0606EB460707264B
:1018200006FA07F18843A5F10A0606EB460603FA15
:1018300006F10843E0600CE0206905EB4507072648
:1018400006FA07F1884305EB450603FA06F108435B
:101850002061072A0FDA606B561E06EB86071F26EB
:1018600006FA07F18843561E06EB860605FA06F1CE
:101870000843606322E00D2A0FDA206BD61F06EBC7
:1018800086071F2606FA07F18843D61F06EB860651
:1018900005FA06F10843206310E0E06AA2F10D06A4
:1018A00006EB86071F2606FA07F18843A2F10D060C
:1018B00006EB860605FA06F10843E062F0BD21B1A9
:1018C000826842F48012826003E0826822F480120F
:1018D000826070470146C86C80B2704766484C30E1
:1018E0000068704721B1426842F48062426003E0C0
:1018F000426822F480624260704721B1426842F43B
:101900008052426003E0426822F480524260704795
:101910000A460021816821F4E0411143816070474B
:1019200021B1826842F40042826003E0826822F4BE
:1019300000428260704721B1826842F402128260E4
:1019400003E0826822F402128260704701460020A0
:101950008A6812F4001F01D0012000E000207047C7
:10196000F0B504461546002000220026092911DDA5
:10197000E068A1F10A0707EB470C072707FA0CF20A
:101980009043A1F10A0707EB470703FA07F2104358
:10199000E0600CE0206901EB410C072707FA0CF22C
:1019A000904301EB410703FA07F210432061A06B5B
:1019B000C0F30156EF1C06F1010CA7EB0C0707EB77
:1019C000870C1F2707FA0CF29043EF1C06F1010C5D
:1019D000A7EB0C0707EB870701FA07F21043A06398
:1019E000F0BD10B50A4600210023816B21F440119F
:1019F000531E41EA0351816310BD08B500230093D3
:101A00000090009B0B440093009B1A6008BD08B532
:101A1000024600200090009201F12800009B18442B
:101A200000900098006880B208BD0A460021416815
:101A3000164B194011434160704741628262704702
:101A40000A460021416821F01F011143416070479F
:101A500040B109490831096841F40001064A0832D9
:101A6000116007E004490831096821F40001024AC5
:101A70000832116070470000002401400028014036
:101A8000003C0140FFFEF0FFFDF7F1FFFFFD3FFFCF
:101A90000246002013680B4201D0012000E0002024
:101AA0007047CA430260704770B5024600200023A9
:101AB00000240B125568CEB205EA060415681D42D3
:101AC00002D00CB1012000E0002070BD00220A12FB
:101AD000D34303607047000010B5012000F09CFC68
:101AE000002000F099FC10BD2A4908607047294980
:101AF000091F086070472749843108607047014614
:101B00000020254A10884FF67F4210400843224AA1
:101B100010807047014600201F4A10884FF68072DF
:101B2000104008431C4A1080704708B500220092FC
:101B3000194A2C3A0092009A02440092009A1160CD
:101B400008BD08B501460020009013482C380090CD
:101B50000098084400900098008808BD0D489C300B
:101B60000068C0B270470C480830008840F001009F
:101B700009490831088070470648A0300068C0B2A3
:101B8000704705480830008840F0020002490831DB
:101B90000880704704860D422C6C004000204449A8
:101BA0000860091D0860091D0860091D086041489A
:101BB0003F4914310860704700213D498279002A6D
:101BC0003AD00A46126803689A430B461A600A1D07
:101BD000126803689A430B1D1A60027911440A685F
:101BE00003681A430A60324A0832126803689A434B
:101BF0002F4B08331A601A1D126803689A432C4B46
:101C00000C331A604279102A0ED11A1F1268036829
:101C10001A43274B08331A601A1D126803681A43C7
:101C2000234B0C331A600DE02149427911440A68B4
:101C300003681A430A6005E0027911440A680368E0
:101C40009A430A6070470021016001710C214171C3
:101C50000021817170471649103109680143144A07
:101C600010321160704701460020114A1432126888
:101C70000A4201D0012000E0002070470C491431D5
:101C800008607047014600200022094B1B6803EAE8
:101C90000102074B14331B680B4202D00AB101202A
:101CA00000E00020704702491431086070470000CE
:101CB00000040140FFFF0F0010B50446CA488442EB
:101CC00008D10121042000F08DFB0021042000F048
:101CD00089FB46E0C548844208D10121082000F074
:101CE00081FB0021082000F07DFB3AE0C0488442DF
:101CF00008D10121102000F075FB0021102000F018
:101D000071FB2EE0BB48844208D10121202000F065
:101D100069FB0021202000F065FB22E0B6488442E8
:101D200008D10121402000F05DFB0021402000F09F
:101D300059FB16E0B148844208D10121802000F00F
:101D400051FB0021802000F04DFB0AE0AC488442AA
:101D500007D10121801500F045FB0021A01500F0FE
:101D600041FB10BD10B50121084600F03BFB0021EE
:101D7000012000F037FB10BD2DE9F041024600259F
:101D80000026002000230024002791F803C00CF057
:101D90000F0591F803C01CF0100F03D091F802C09A
:101DA0004CEA050591F800C0BCF1000F31D0146871
:101DB00000202BE04FF0010C0CFA00F3B1F800C04A
:101DC0000CEA03069E4220D183004FF00F0C0CFA60
:101DD00003F7BC4305FA03FC4CEA040491F803C082
:101DE000BCF1280F06D14FF0010C0CFA00FCC2F830
:101DF00014C00AE091F803C0BCF1480F05D14FF0C0
:101E0000010C0CFA00FCC2F810C0401C0828D1D309
:101E10001460B1F800C0BCF1FF0F34DD546800203D
:101E20002EE000F1080C4FF0010808FA0CF3B1F8AD
:101E300000C00CEA03069E4221D183004FF00F0C34
:101E40000CFA03F7BC4305FA03FC4CEA040491F8CE
:101E500003C0BCF1280F05D100F1080C08FA0CF8FA
:101E6000C2F8148091F803C0BCF1480F07D100F10B
:101E7000080C4FF0010808FA0CF8C2F81080401C5A
:101E80000828CED35460BDE8F0814FF6FF71018081
:101E9000022181700421C1707047024600209368BE
:101EA0000B4201D0012000E0002070470146886805
:101EB00080B2704702460020D3680B4201D0012057
:101EC00000E0002070470146C86880B27047016199
:101ED0007047416170470AB1016100E0416170479C
:101EE000C16070474FF480320A4382618161826130
:101EF00082698269704702460020424B18684FF69B
:101F00008073184040EA021008433E4B1860704747
:101F10003D49C8617047F0B50A46002300240021FE
:101F2000002500F00046B6F1004F02D1354EF169B0
:101F300001E0344E7168C0F3034583B200F44016EB
:101F4000B6F5401F08D121F070612E4E766826F05C
:101F500070662C4F7E6012E000F48016B6F5801F8C
:101F600006D1032606FA05F4A14341F0706106E0AC
:101F7000460D360103FA06F6B14341F0706122B115
:101F8000460D360103FA06F6314300F00046B6F17D
:101F9000004F02D11B4EF16101E01A4E7160F0BD9D
:101FA00030B500228B071C0F0F2303FA04F2154BE8
:101FB00008338C1053F824309343124C08348D109E
:101FC00044F8253023468C1053F824308C07240F16
:101FD00000FA04F423430B4C08348D1044F82530E8
:101FE00030BD0A490860704700080140000C0140FC
:101FF000001001400014014000180140001C014085
:10200000002001400000014000002042DC0020428E
:1020100010B50121080700F0F2F900214FF08050BF
:1020200000F0EDF910BD29490862704727490861A1
:10203000704701460020264A106820F0E00008435F
:102040001060704723490860704710B502460020B1
:102050001F4B186820F00300104318601E4B1B68CC
:1020600043F004031C4C2360012901D130BF00E080
:1020700020BF194B1B6823F00403174C236010BDCD
:102080001348006840F004001149086008460068E1
:1020900040F0020008601048006840F004000E495B
:1020A000086000BF00BF30BF704701460020084AEB
:1020B00052680A4201D0012000E000207047044924
:1020C000096841EA8001024A1160704700000E422F
:1020D00000700040A0000E4210ED00E0DD480068F6
:1020E00040F00100DB49086008464068DA490840D2
:1020F000D849486008460068D8490840D549086072
:102100000846006820F4802008600846406820F4F3
:10211000FE0048604FF41F0088607047CD49096891
:1021200021F48031CB4A11601146096821F48021E5
:102130001160B0F5803F03D0B0F5802F0ED106E0DE
:10214000C449096841F48031C24A116007E0C149BD
:10215000096841F4A021BF4A116000E000BF00BF40
:10216000704710B501460022002300204A11012AC1
:1021700002D1B84C236806E0022A02D1B54C236A8A
:1021800001E0B44C636A01F01F02012494401C4238
:1021900001D0012000E0002010BD38B500200090E3
:1021A0000024002500BF3120FFF7DBFF0546009823
:1021B000401C00900098B0F5A06F01D0002DF2D027
:1021C0003120FFF7CEFF08B1012400E000242046B3
:1021D00038BD014600209F4A106820F0F80040EA10
:1021E000C100106070479E49086070470246002099
:1021F000984B586820F47C1042EA01031843954B31
:102200005860704796490866704701460020914A19
:10221000506820F003000843506070478D484068C4
:1022200000F00C007047014600208A4A506820F0F8
:10223000F00008435060704701460020854A50680E
:1022400020F4E06008435060704701460020814A56
:10225000506820F4605040EAC1005060704729B1D6
:102260007C4A527A02437B4B5A7204E0794A527A92
:102270008243784B5A7270477A490860704701462A
:102280000020744A506820F4404008435060704772
:102290000021754A11706F4A82F82010012802D07F
:1022A000042808D103E001216F4A117004E00521E0
:1022B0006D4A117000E000BF00BF70476B490860B5
:1022C00070476449096A0143624A1162704767496D
:1022D00044390860704730B50021002200240023F3
:1022E0005C4D6D6805F00C0121B1042905D0082969
:1022F00023D105E05E4D056022E05D4D05601FE0E5
:10230000544D6D6805F47012524D6D6805F48034BB
:10231000022505EB92421CB9564D554305600BE072
:102320004C4D6D6815F4003F03D0524D5543056088
:1023300002E04F4D5543056002E04D4D056000BF82
:1023400000BF444D6D6805F0F00109094A4D6B5C12
:102350000568DD4045603F4D6D6805F4E061090AA0
:10236000454D6B5C4568DD4085603A4D6D6805F410
:102370006051C90A404D6B5C4568DD40C560354D14
:102380006D6805F44041890B3C4D6B5CC568B5FB3D
:10239000F3F5056130BD29B12E4A526902432D4B38
:1023A0005A6104E02B4A526982432A4B5A617047B2
:1023B00029B1284A92690243264B9A6104E0254AD2
:1023C00092698243234B9A61704729B1214AD269AD
:1023D0000243204BDA6104E01E4AD26982431D4B5E
:1023E000DA61704729B11B4AD2680243194BDA609F
:1023F00004E0184AD2688243164BDA60704729B16C
:10240000144A12690243134B1A6104E0114A12691B
:102410008243104B1A617047144940390860704775
:102420000F49C86470470B49C87170470948406A32
:1024300040F0807007494862704701460020054A15
:1024400092680A4201D0012000E000207047014953
:1024500088727047001002400000FFF8FFFFF6FE90
:1024600000004242D8004242201002408004424212
:1024700000127A0000093D002600002036000020EE
:1024800029B14F4A128802434D4B1A8004E04C4A4E
:10249000128882434A4B1A8070474948001D0088C1
:1024A00040F010004649091D088070474448001D4F
:1024B00000884FF6EF7108404149091D08807047B8
:1024C00000213F481C300188001F008841EA00407D
:1024D000704700B50246FFF7E0FF100C384918318D
:1024E0000880091D0A80FFF7E1FF00BD00B5024624
:1024F000FFF7D3FFC2F30340314908310880091DBB
:102500000A80FFF7D3FF00BD00B50246FFF7C5FF05
:10251000100C2B4920310880091D0A80FFF7C6FFE7
:1025200000BD00202649103109880907080B2449FD
:10253000143109880843704700BF2148001D0088F6
:1025400010F0200FF9D070471D48001D00884FF68D
:10255000F77108401A49091D088000BF1848001D7E
:10256000008810F0080FF9D0704701460020144A87
:10257000121D12880A4201D0012000E0002070479D
:102580000F49091D098881430D4A121D11807047AA
:10259000014600200A4A121D12880A40D0B2084A99
:1025A00012880A4202D008B1012000E000207047E2
:1025B0000349091D09888143014A121D1180704792
:1025C0000028004010B50446FE48844208D101218D
:1025D000C014FFF707FF0021E014FFF703FFC4E07A
:1025E000B4F1804F08D101210846FFF708FF002110
:1025F0000120FFF704FFB8E0F348844208D101212D
:102600000220FFF7FCFE00210220FFF7F8FEACE0FD
:10261000EE48844208D101210420FFF7F0FE00219A
:102620000420FFF7ECFEA0E0E948844208D1012134
:102630000820FFF7E4FE00210820FFF7E0FE94E009
:10264000E448844208D101211020FFF7D8FE002180
:102650001020FFF7D4FE88E0DF48844208D1012132
:102660002020FFF7CCFE00212020FFF7C8FE7CE0F1
:10267000DA48844208D101214014FFF7B3FE00215B
:102680006014FFF7AFFE70E0D548844209D1012104
:10269000C804FFF7A7FE00214FF40020FFF7A2FEB9
:1026A00063E0D048844209D101210805FFF79AFE72
:1026B00000214FF48010FFF795FE56E0CA4884428F
:1026C00009D101214805FFF78DFE00214FF40010CC
:1026D000FFF788FE49E0C548844208D10121402027
:1026E000FFF78DFE00214020FFF789FE3DE0C04846
:1026F000844208D101218020FFF781FE0021802043
:10270000FFF77DFE31E0BB48844208D101218015EE
:10271000FFF775FE0021A015FFF771FE25E0B64812
:10272000844209D101210804FFF75CFE00214FF427
:102730008030FFF757FE18E0B048844209D10121EC
:102740004804FFF74FFE00214FF40030FFF74AFE28
:102750000BE0AB48844208D101218804FFF742FE18
:1027600000214FF48020FFF73DFE10BD00220288BB
:10277000944B98420ED0994B98420BD0B0F1804FB9
:1027800008D0914B984205D0904B984202D0904B84
:10279000984204D14FF68F731A404B881A438D4BE1
:1027A000984207D08C4B984204D04FF6FF431A4012
:1027B000CB881A4302808B8883850B880385814BE5
:1027C00098420BD0854B984208D08B4B984205D04D
:1027D0008A4B984202D08A4B984201D10B7A0386E9
:1027E00001238382704770B5002400220023058CEA
:1027F0004FF6FE7635400584028C8388048B4FF6B5
:102800008F752C40B51E2C400D882C43751E2A4018
:102810000D892A434D882A436A4DA8420BD06F4D3B
:10282000A84208D0744DA84205D0744DA84202D0E9
:10283000734DA84213D14FF6F7752A404D892A43AC
:102840004FF6FB752A408D882A434FF6FF652B40D3
:102850004FF6FF552B408D892B43CD892B43838029
:102860000483CD888586028470BD70B50024002263
:102870000023058C4FF6EF7635400584028C838863
:10288000048B48F6FF752C404FF6FF452C400D8811
:102890004FF6FF7606EA05252C434FF6DF752A40F2
:1028A0000D8906EA05152A434D8806EA05152A43CF
:1028B000444DA84202D0494DA8421DD14FF67F7524
:1028C0002A404D894FF6FF7606EA05152A434FF652
:1028D000BF752A408D8806EA05152A434FF6FF3555
:1028E0002B404FF2FF752B408D8906EA85052B435F
:1028F000CD8906EA85052B4383800483CD8805872F
:10290000028470BD70B5002400220023058C4FF6B0
:10291000FF6635400584028C8388848B4FF68F7563
:102920002C404FF6FC752C400D882C434FF6FF557C
:102930002A400D894FF6FF7606EA05252A434D8881
:1029400006EA05252A431F4DA84202D0234DA8427E
:102950001DD14FF2FF752A404D894FF6FF7606EAEA
:1029600005252A434FF6FF352A408D8806EA0525BE
:102970002A434EF6FF752B404DF6FF752B408D898F
:1029800006EA05152B43CD8906EA05152B438380FE
:102990008483CD888587028470BD70B500220023B2
:1029A0000024058C4EF6FF7635400584038C848820
:1029B000828B48F6FF752A404FF6FF452A400D8866
:1029C00020E00000002C014000040040000800400E
:1029D000000C004000100040001400400034014092
:1029E000004C0140005001400054014000180040DC
:1029F000001C004000200040004001400044014015
:102A0000004801404FF6FF7606EA05252A434DF6B9
:102A1000FF752B400D8906EA05352B434D8806EAE4
:102A200005352B43FA4DA84202D0FA4DA84208D1F1
:102A30004BF6FF752C408D894FF6FF7606EA85151B
:102A40002C4384808283CD88A0F84050038470BDDD
:102A5000828B4FF2FF331A408283828B4FF6FF73D3
:102A600003EA01231A4382837047F0B50C461546EA
:102A7000002200210026078C4EF6FF7C07EA0C0797
:102A80000784828B018C4FF6FF7707EA043640F605
:102A9000FF473A404FF6FF7707EA05273A434FF6DC
:102AA000FF7707EA03373A43D94FB8420ED0D94FE0
:102AB000B8420BD0B0F1804F08D0D74FB84205D004
:102AC000D64FB84202D0D64FB84206D14DF6FF7766
:102AD000394046F48057394305E047F6FF573940FF
:102AE00044F48057394382830184F0BD828B4FF6D2
:102AF000F3731A408283828B0A4382837047F0B556
:102B00000C461546002200210026078C4FF6FF6C6C
:102B100007EA0C070784828B018C4FF6FF7707EAE0
:102B200004264FF60C773A404FF6FF7707EA031773
:102B30002F433A43B64FB8420ED0B64FB8420BD0EF
:102B4000B0F1804F08D0B44FB84205D0B34FB8426F
:102B500002D0B34FB84206D14FF6FF57394046F482
:102B60008077394305E04FF2FF57394044F48077CE
:102B7000394382830184F0BD028B4FF2FF331A4048
:102B80000283028B4FF6FF7303EA01231A43028389
:102B90007047F0B50C461546002200210026078C30
:102BA0004FF6EF7C07EA0C070784028B018C4FF687
:102BB000FF7707EA041640F6FF473A404FF6FF77E3
:102BC00007EA03373A434FF6FF7707EA05273A4308
:102BD0008F4FB8420ED08F4FB8420BD0B0F1804F1C
:102BE00008D08D4FB84205D08C4FB84202D08C4FE0
:102BF000B84206D14FF6DF77394046F01007394327
:102C000005E04FF65F77394044F0100739430283FF
:102C10000184F0BD028B4FF6F3731A400283028BDE
:102C20000A4302837047F0B50C4615460022002186
:102C3000068C4FF6FE773E400684028B018C4FF6E1
:102C40000C7632407E1C06EA03162E433243704E49
:102C5000B0420ED06F4EB0420BD0B0F1804F08D0D2
:102C60006D4EB04205D06D4EB04202D06C4EB042B7
:102C700006D14FF6FD76314044F00106314305E0C0
:102C80004FF6F576314044F001063143028301846A
:102C9000F0BD70B505460C465D4885420ED05D48D6
:102CA00085420BD0B5F1804F08D05B48854205D0F6
:102CB0005A48854202D05A48854200D100E000BF00
:102CC000208850B92389A28861882846FFF7ABFF86
:102CD000E1882846FFF79EFF25E0208804280AD1D6
:102CE0002389A28861882846FFF753FFE188284698
:102CF000FFF742FF17E0208808280AD12389A2881D
:102D000061882846FFF7FBFEE1882846FFF7EEFEC4
:102D100009E02389A28861882846FFF7A6FEE1889A
:102D20002846FFF795FE70BD2DE9F04105460C469B
:102D300000260127608808B9022600E00026A08846
:102D4000012801D1022700E001272088A0B92389AA
:102D5000A28861882846FFF766FFE1882846FFF7CA
:102D600059FF23893A4631462846FFF712FFE1888A
:102D70002846FFF701FF13E02389A28861882846CF
:102D8000FFF707FFE1882846FFF7F6FE23893A465A
:102D900031462846FFF747FFE1882846FFF73AFF0C
:102DA000BDE8F0810A884B881A438B881A43CB8888
:102DB0001A430B891A434B891A438B891A43A0F88B
:102DC000442070474FF6FF71818000210180C1804F
:102DD0004180017270470021018041808180C18063
:102DE000018141818181C181704700210180418041
:102DF000012181800021C180018170470021018073
:102E000041808180C18001814181818170470000C2
:102E1000002C014000340140000400400008004044
:102E2000000C004021B1028842F00102028004E05F
:102E300002884FF6FE731A400280704731B1B0F835
:102E4000442042F40042A0F8442005E0B0F84420B9
:102E5000C2F30E02A0F8442070471AB183890B43D5
:102E6000838102E083898B4383817047818270472D
:102E700041EA0203A0F8483070471AB183890B4336
:102E8000838102E083898B438381704701894FF6F8
:102E9000F8721140018170470A46002101894FF6FE
:102EA0008F73194011430181704730B504460D46B8
:102EB00029462046FFF7F0FF208940F007002081D7
:102EC00030BD2DE9F04104460D4616461F46602DE3
:102ED00006D13B46012231462046FFF75AFE05E067
:102EE0003B46012231462046FFF79DFE29462046FB
:102EF000FFF7D2FF208940F007002081BDE8F08174
:102F000030B50C4600210189C9B24FF6FF7505EABC
:102F10000325154325432943018130BD2DE9F041A7
:102F200005460E4617469846002443463A46314623
:102F30002846FFF7E5FF2C894FF6F870044044F06F
:102F400007044FF68F70044044F070042C81BDE8F4
:102F5000F081F0B504460D4616461F463B46324604
:102F600029462046FFF7CCFF208940F4804020818D
:102F7000F0BD0185828270470A46002101884FF624
:102F80008F731940114301807047F0B50C46154608
:102F90001E460021002200230189028B038C4FF67C
:102FA000F877394021434FF6FC473A4040F2011789
:102FB0003A434FF6DD773B404FF6FF7707EA0617B7
:102FC0002F433B43018102830384F0BD0A46002165
:102FD000018B4FF68F7319401143018370470A46E6
:102FE0000021018B48F6FF7319404FF6FF7303EA87
:102FF00002231943018370470A460021818B4FF653
:103000008F7319401143818370470A460021818BD9
:1030100048F6FF7319404FF6FF7303EA0223194382
:103020008183704721B1028842F08002028004E06F
:1030300002884FF67F731A400280704721B1828860
:1030400042F00402828004E082884FF6FB731A404B
:103050008280704721B1828842F00802828004E0B9
:1030600082884FF6F7731A408280704721B18288B8
:1030700042F00102828004E082884FF6FE731A401B
:10308000828070470A460021018B4FF6F773194082
:103090001143018370470A460021018B4FF2FF73F1
:1030A00019404FF6FF7303EA022319430183704767
:1030B0000A460021818B4FF6F77319401143818333
:1030C00070470A460021818B4FF2FF7319404FF67B
:1030D000FF7303EA02231943818370470A460021E4
:1030E000018B4FF6FB7319401143018370470A4669
:1030F0000021018B4FF6FF3319404FF6FF7303EAAF
:1031000002231943018370470A460021818B4FF641
:10311000FB7319401143818370470A460021818B5C
:103120004FF6FF3319404FF6FF7303EA02231943AA
:10313000818370470A460021018B4FF67F73194047
:103140001143018370470A460021018BC1F30E0130
:103150004FF6FF7303EA02231943018370470A46BF
:103160000021818B4FF67F73194011438183704793
:103170000A460021818BC1F30E014FF6FF7303EA6B
:1031800002231943818370470A460021018C4FF6C0
:10319000FD7319401143018470470A460021018CD8
:1031A0004FF6F77319401143018470470A46002116
:1031B000018C4FF6DF7319404FF6FF7303EA0213D9
:1031C0001943018470470A460021018C4FF67F7332
:1031D00019404FF6FF7303EA021319430184704745
:1031E0000A460021018C4FF6FF5319404FF6FF733A
:1031F00003EA02231943018470470A460021018C27
:103200004FF2FF7319404FF6FF7303EA022319438D
:10321000018470470A460021018C4DF6FF73194066
:103220004FF6FF7303EA023319430184704730B548
:10323000002301248C40A3B2048C9C430484048C9E
:1032400002FA01F5ADB22C43048430BD30B5002341
:1032500004248C40A3B2048C9C430484048C02FAA2
:1032600001F5ADB22C43048430BD70B50346002097
:1032700000241846183001258D40ACB21D8CA543A2
:103280001D8409B1082909D100EB6100056825F00A
:10329000700505600568154305600EE00D1FC5F358
:1032A0004E052844056825F4E045056005684FF69D
:1032B000FF7606EA02263543056070BD21B102881B
:1032C00042F00202028004E002884FF6FD731A40C9
:1032D0000280704721B1028842F00402028004E0BB
:1032E00002884FF6FB731A400280704721B1828832
:1032F00042F08002828004E082884FF67F731A4099
:103300008280704702884FF6F7731A400280028865
:103310000A430280704782884FF68F731A4082807A
:1033200082880A438280704702894FF6F8731A40F8
:10333000028102890A430281704702894FF67F7336
:103340001A40028102890A430281704781847047D2
:1033500081857047818670470187704781877047F4
:10336000A0F84010704702884FF6FF431A400280D1
:1033700002880A43028070470146888E70470146E2
:10338000088F70470146888F70470146B1F84000AA
:1033900070470146888C70470146088D7047024689
:1033A0000020138A0B4201D0012000E0002070476A
:1033B000CA430282704730B5024600200023002431
:1033C000158A05EA0103958905EA010413B10CB1D8
:1033D000012000E0002030BDCA4302827047000097
:1033E00010B50446FB48844209D101218803FEF749
:1033F000F9FF00214FF48040FEF7F4FF32E0F64879
:10340000844209D101214804FEF7F9FF00214FF45D
:103410000030FEF7F4FF25E0F048844209D1012195
:103420008804FEF7ECFF00214FF48020FEF7E7FF51
:1034300018E0EB48844209D10121C804FEF7DFFF00
:1034400000214FF40020FEF7DAFF0BE0E54884424C
:1034500008D101210805FEF7D2FF00214FF48010AA
:10346000FEF7CDFF10BD2DE9F04786B005460E46AC
:103470000024A24600BFA1460027B08900B100BFCA
:103480002F462C8A4CF6FF700440F08804432C82AF
:10349000AC894EF6F3100440B08831890843718935
:1034A00008430443AC81AC8A4FF6FF400440B08926
:1034B0000443AC8201A8FEF70EFFC648874202D142
:1034C000DDF810A001E0DDF80CA0A88910F4004F91
:1034D00008D00AEBCA0000EB0A1031684900B0FBC3
:1034E000F1F807E00AEBCA0000EB0A103168890026
:1034F000B0FBF1F86420B8FBF0F00401200964216E
:1035000001FB1089A88910F4004F08D0322000EB8D
:10351000C900B0FBF1F000F00700044308E03220DE
:1035200000EB09106421B0FBF1F000F00F00044340
:103530002C8106B0BDE8F0874FF4165101600021E0
:103540008180C18001810C214181002181817047EE
:1035500010B502460020108A4FF2FF0318400B8876
:103560004C8823438C882343CC8823431843108200
:1035700010BD0021018041808180C180704721B150
:10358000828942F40052828104E082894DF6FF7301
:103590001A4082817047F0B50346002400260025BA
:1035A0000020A1F510676A3F00D100BF1846C1F3A3
:1035B000421401F01F06012707FA06F5012C01D17C
:1035C0000C3004E0022C01D1103000E014301AB1AC
:1035D00007682F43076002E00768AF430760F0BD4C
:1035E0001AB1838A0B43838202E0838A8B438382EE
:1035F0007047028A4FF6F0731A400282028A0A4329
:103600000282704782894FF2FF731A408281828959
:103610000A438281704721B1828942F0020282818D
:1036200004E082894FF6FD731A4082817047028A56
:103630004FF6DF731A400282028A0A430282704701
:1036400021B1028A42F48042028204E0028A4BF6EF
:10365000FF731A4002827047C1F3080282807047EC
:1036600001468888C0F308007047818941F0010154
:1036700081817047028BD2B20283028B42EA01221F
:1036800002837047028B02F47F420283028B0A435B
:103690000283704721B1828A42F02002828204E0D4
:1036A000828A4FF6DF731A408282704721B1828A84
:1036B00042F01002828204E0828A4FF6EF731A40D1
:1036C0008282704721B1828A42F00802828204E03D
:1036D000828A4FF6F7731A408282704721B182893D
:1036E00042F40042828103E08289C2F30E028281A9
:1036F000704721B1828A42F40062828204E0828AA9
:103700004FF2FF731A4082827047828A4FF6FB7332
:103710001A408282828A0A438282704721B1828A59
:1037200042F00202828204E0828A4FF6FD731A4060
:103730008282704702460020B1F5007F00D100BFB1
:1037400013880B4201D0012000E00020704701F4F3
:103750000072B2F5007F00D100BFCA4302807047FB
:1037600070B502460024002300250020A1F5106654
:103770006A3E00D100BFC1F3421501F01F030126CC
:1037800006FA03F3012D02D19689334006E0022D9B
:1037900002D1168A334001E0968A33400C1201268A
:1037A00006FA04F41688344013B10CB1012000E08D
:1037B000002070BD10B500220023A1F510646A3C02
:1037C00000D100BF0A1201249440A3B2DC4304805C
:1037D00010BD000000380140004400400048004097
:1037E000004C00400050004030B505462A460B46CC
:1037F00012F8010B13F8014B08B1A042F8D01CB12C
:10380000002802D06D1CF1E7284630BD2DE9FE4F9F
:1038100081EA030404F0004421F0004100944FF0D9
:10382000000B23F0004350EA010402D052EA0304E3
:1038300004D10020014603B0BDE8F08FC3F30A5461
:10384000C1F30A552C44A4F2F3340194A0FB0254B2
:10385000C1F3130141F48011C3F3130343F4801344
:1038600001FB024400FB034E840A970A44EA815498
:1038700047EA8357A4FB076802958D0A05FB078575
:103880004FEA932C04FB0C542705029D4FEA06587F
:1038900047EA1637B5EB08056EEB070C870E920E5C
:1038A00047EA811742EA8312A7FB0201B6EB0B013C
:1038B00064EB00042B0D43EA0C335E1844EB1C5000
:1038C000DA465146E7FB0201C5F313044FEA0B3316
:1038D00043EA14534FEA0432019C43EA0603A4F17D
:1038E0000C040294009CCDE900B400F036F9A2E784
:1038F0002DE9F04D81EA030404F0004B21F000456E
:1039000014464FF0000A23F0004150EA050220D08F
:1039100054EA01021DD0C5F30A570246C5F313034A
:10392000C1F31300C1F30A5640F4801543F4801329
:10393000A7EB0608101BD64608F2FD3873EB05000E
:1039400002D308F1010801E092185B41B8F1000FC1
:1039500003DA00200146BDE8F08D00204FF480110D
:10396000064684460EE0171B73EB050705D3121BB2
:1039700063EB050306434CEA010C49084FEA3000AB
:1039800092185B4150EA0107EDD152EA030012D0D0
:1039900082EA040083EA0501084303D100224FF0C4
:1039A000004308E0101BAB4102D20122002302E0D9
:1039B0006FF0010253101AEB06004CEB085110EBAC
:1039C0000A0041EB0B01BDE8F04D00F0B9B80EB5AF
:1039D00040F2334102910021CDE900110A460B4625
:1039E00000F0BBF803B000BD00F0004230F0004032
:1039F0000AD0C10D01F56071C0F3160042EA015111
:103A0000C20840071143704700200146704701F08B
:103A1000004330B421F0004150EA010206D00A0D03
:103A2000A2F56072C1F31301002A02DC30BC002051
:103A30007047440F44EAC104C100E01830BC00EBF9
:103A4000C25000F047B830B50B4601460020202296
:103A5000012409E021FA02F59D4205D303FA02F59B
:103A6000491B04FA02F52844151EA2F10102F1DCFB
:103A700030BD2DE9F05F0546002092469B46884602
:103A80000646814640241BE02846414647462246DA
:103A900000F0A9F953465A46C01A914110D3114675
:103AA0001846224600F090F92D1A67EB01084F46A0
:103AB00022460120002100F087F917EB00094E4152
:103AC000201EA4F10104DFDC484631462A46434665
:103AD000BDE8F09F0029A8BF7047401C490008BFFF
:103AE00020F00100704710B4B0FA80FC00FA0CF02E
:103AF00050EA010404BF10BC704749B1CCF1200466
:103B000021FA04F411FA0CF118BF012121430843F2
:103B1000A3EB0C01CB1D0106000A002BBEBF002049
:103B200010BC704700EBC35010440029A4BF10BC68
:103B30007047401C490008BF20F0010010BC7047CE
:103B400010B5002B08DA401C41F1000192185B41CE
:103B50001A4301D120F0010010BD2DE9F04D92462D
:103B60009B4611B1B1FA81F202E0B0FA80F2203244
:103B7000904600F029F904460F4640EA0A0041EA5F
:103B80000B0153465A46084303D120463946BDE847
:103B9000F08D114653EA010015D0C8F1400250469D
:103BA00000F021F905460E4650465946424600F0BF
:103BB0000BF9084301D0012000E00020054346EA4C
:103BC000E0762C4337430A984FEA4453A0EB0800B1
:103BD0004FEAD4240A304FF0000244EA47544FEA37
:103BE000D72502D500200146D1E70105101969410A
:103BF000DDE9084500196941BDE8F04DA0E72DE970
:103C0000FE4F804681EA0300C00F0C46009021F071
:103C1000004123F00045B8EB0200A94105D240461F
:103C2000214690461C460B46024623F000401043B6
:103C300004D14046214603B0BDE8F08F270DC7F3FD
:103C40000A00C3F30A510290401A0190402866DA34
:103C5000C3F3130040F4801B0098924620B1002368
:103C6000D2EB030A63EB0B0B01985946C0F14002FB
:103C7000504600F0A9F806460D4650465946019AAE
:103C800000F0C1F810EB08006141002487EA1152EE
:103C900084EAE7731A433BD0009A3AB3019A012AA7
:103CA0004FEA075210DC001B61EB02014FF00042AB
:103CB00002EA0752CDE90042001C41F5801132466C
:103CC0002B46FFF74AFFB6E7001B61EB0201001C21
:103CD00041F5801300185B412018A2F5001747EB4F
:103CE000030140EAD570B6196D4111E06D084FEA45
:103CF000360645EAC0754FEA0752001B61EB020128
:103D0000001C41F5801149084FEA3000001951416B
:103D100032462B4603B0BDE8F04FFFF711BF0098C5
:103D2000012240000023D0EB020263EBE073009815
:103D300021464FEAE074B8EB000061EB0401E9E7CB
:103D400083F000435BE781F0004158E7C1F30A527A
:103D5000C1F3130140F2FF3341F480119A4202DAB9
:103D600000200146704740F233439A42A2F23342A8
:103D700002DC524200F037B800F026B830B5002916
:103D800004DB4FF00044404264EB0101002B04DBF4
:103D90004FF00044524264EB0303994208BF904243
:103DA00030BD0000064C074D06E0E06840F001031E
:103DB00094E8070098471034AC42F6D3FCF79AF920
:103DC0001059000830590008202A04DB203A00FA74
:103DD00002F1002070479140C2F1200320FA03F362
:103DE000194390407047202A04DB203A21FA02F060
:103DF0000021704721FA02F3D040C2F12002914025
:103E0000084319467047202A06DBCB17203A41FAAF
:103E100002F043EAE07306E041FA02F3D040C2F157
:103E20002002914008431946704700000FB4054B2B
:103E300010B503A9044A029800F0DAF810BC5DF846
:103E400014FB0000091300083C0000200FB4084BCD
:103E500010B504A902AA039800F0CAF8044602A902
:103E6000002000F068FC204610BC5DF814FB000048
:103E70003747000802E008C8121F08C1002AFAD11B
:103E800070477047002001E001C1121F002AFBD1DA
:103E9000704700002DE9FF5FDDE90220010DDDF82C
:103EA00038B0024310D10F9801244CA2012808D049
:103EB000002100980F9BC0E90021C0E90243BDE842
:103EC000FF9F6FEA0B01F4E7A1F2FF3144F61050B7
:103ED00041430D140F9801280ED0A5EB0B00401C98
:103EE0004FF000043E4EDFF8FC90B0F1000AA0460F
:103EF00005DACAF1000717E0CBF10000F0E707464A
:103F000012E0F80707D02246334640464946FFF7FD
:103F10007DFC804689462246334610461946FFF707
:103F200075FC04460E467F10002FEAD1DDE9020140
:103F3000BAF1000F42464B4602DAFFF767FC01E098
:103F4000FFF7D6FC04460E460022274BFFF716FF6C
:103F500003D84FF0FF30014607E00022234B2046F4
:103F60003146FFF74CFEFFF7F1FE102409E0002C6C
:103F70000ADB0A220023FFF77CFD019B30321A5531
:103F8000641E50EA0102F2D1641C019AC4F11103CB
:103F900014440F9A012A09D00122084301D15B453C
:103FA0000FDD4FF0000205F101050DE0084303D1DC
:103FB000A3EB0B056D1E09E000204FF0110B0F90D5
:103FC00088E701DA00226D1E002A83D000980F993D
:103FD000C0E90231C0E9004571E70000300000008F
:103FE000000024400000F03F0000F0430000E03FEC
:103FF0002DE9FF4F95B09B4689460646002512E203
:10400000252878D10024761CF94A274601210594F9
:104010003378203B01FA03F0104202D00443761CAF
:10402000F6E730782A2811D06FF02F033078A0F10E
:104030003002092A16D8059A44F0020402EB8202E3
:1040400003EB42021044761C0590EFE759F8042B6D
:104050000592002A03DA504244F40054059044F0DB
:104060000204761C30782E2816D116F8010F44F081
:1040700004042A280DD06FF02F023078A0F130030D
:10408000092B09D807EB870302EB4303C718761CFB
:10409000F3E759F8047B761C30786C280FD006DCE7
:1040A0004C2817D068280DD06A2814D104E0742851
:1040B00010D07A280FD10DE044F400140AE044F443
:1040C000801401E044F440147278824202D1761CDC
:1040D00004F58014761C307866280BD013DC582841
:1040E00077D009DC002875D04528F6D04628F4D0D2
:1040F00047281AD19FE118E0632835D0642879D089
:10410000652812D197E1702873D008DC6728F1D0B8
:1041100069286FD06E280DD06F2806D1B5E07328BE
:104120002CD0752875D0782874D05A4617999047A6
:104130006D1C76E1C4F30250022809D003280DD08B
:10414000D9F8001004280DD00D6009F1040968E1C8
:10415000D9F80010EA17C1E90052F6E7D9F80010C3
:104160000D80F2E70D70F0E719F8041B8DF80010D0
:1041700000208DF80100EA46012003E059F804AB65
:104180004FF0FF3061074FF0000102D40DE008F15D
:1041900001018846B9420FDA8045F8DB1AF80810A9
:1041A0000029F4D108E008F1010188468142FADBD8
:1041B0001AF808100029F6D105985B46A0EB08070D
:1041C00021463846179A00F09EFA284400EB08056D
:1041D00007E04DE02BE10DE01AF8010B5A46179964
:1041E0009047B8F10108F7D25B4621463846179A46
:1041F00014E142E00A220092C4F302524FF0000A96
:10420000022A08D059F804CB032A4FEAEC710AD0ED
:104210000DE029E02AE009F1070121F00702F2E8A8
:1042200002C1914609E00FFA8CFC4FEAEC71042AB6
:1042300003D14FFA8CFC4FEAEC71002907DA0A46E9
:104240000021DCF1000C61EB02012D2202E02205CD
:1042500004D52B228DF80420012203E0E20701D0CF
:104260002022F7E7904653E00A2102E010220DE0F9
:1042700010214FF0000A00910BE010224FF0000ACD
:1042800044F004040827009203E008224FF0000ADB
:104290000092C4F30252022A05D059F804CB00213F
:1042A000032A08D009E009F1070121F00702F2E82A
:1042B00002C1914605E01FFA8CFC042A01D10CF0E2
:1042C000FF0C4FF00008220722D5702827D0009B52
:1042D00083F0100353EA0A0309D15CEA010206D015
:1042E00030228DF804208DF8050002229046009BB4
:1042F00083F0080353EA0A030AD15CEA010201D100
:10430000620705D530228DF804204FF001087F1E8A
:10431000582809D037A003900EA8029013E040223D
:104320008DF804200122E1E737A0F4E75346604608
:10433000009AFFF79EFB84460398825C0298A0F1E6
:104340000100029002705CEA0100EFD1029806A918
:10435000A1EB000000F1200A600702D524F48034AC
:1043600000E00127574502DDA7EB0A0000E000202E
:1043700000EB0A01009005984144A0EB0100059074
:10438000E00306D45B462146179A059800F0BBF976
:104390000544002706E001A85A46C05D17999047DA
:1043A0006D1C7F1C4745F6DBE0030CD55B462146C0
:1043B000179A059800F0A7F9054404E030205A4602
:1043C000179990476D1C0099481E00900029F5DC54
:1043D00008E0029802995A460078491C0291179900
:1043E00090476D1CBAF10001AAF1010AF1DC6BE102
:1043F00009280100303132333435363738396162BB
:10440000636465660000000030313233343536377E
:1044100038394142434445460000000000F060F94D
:10442000054406F10106307800287FF4E9AD19B0A3
:104430002846BDE8F08F620700D4062709F107027D
:1044400022F0070CFCE80223E14603F000485FEA93
:10445000080C02D00FF27C2C0DE05FEA045C02D560
:104460000FF2742C07E05FEAC47C02D00FF26C2CD0
:1044700001E0AFF2700C4FF0FF3823F00043CDF8AD
:1044800050C065280CD006DC452809D046281DD030
:1044900047283ED13EE0662818D0672839D139E058
:1044A0000021112F01DB112000E0781CCDE9000173
:1044B00006A90EA8FFF7EEFCDDE90F010E9A0391A5
:1044C0000021009207F1010A04914EE04FF00040F4
:1044D0000097CDE9011006A90EA8FFF7DBFCDDE986
:1044E0000F0203920E9B11990022DDF80CA000939D
:1044F000049219B907F1010100EB010AB7EB0A00B8
:1045000004D4C0F1FF3007F1010A0490AAEB0700C0
:10451000019046E0012F00DA01270021112F01DD73
:10452000112000E03846CDE9000106A90EA8FFF7EA
:10453000B1FCDDE90F010E9A039100210491009274
:10454000BA4621070CD40399514500DA8A46BAF1DC
:10455000010F05DD009AAAF10101515C302908D054
:10456000B84202DA10F1040F06DA0121CDE9011098
:1045700017E0AAF10101E9E7002805DC04990144EC
:104580000491AAEB000102E0411C514500DD8A467E
:104590000499A0EB010000F1010001904FF00040F0
:1045A0000290200704D40198504501DBCDF8048027
:1045B00000208DF84F0002980DF14F07B0F1004F29
:1045C00025D02B200E9002984FF0020800280CDA1C
:1045D000404202902D200E9007E00A210298FFF73A
:1045E00032FA3031029007F8011DB8F10001A8F14C
:1045F0000108F2DC02980028EFD1791E0E980870AD
:10460000307800F0200040F0450007F8020D12A8B5
:10461000A0EB070000F107081498007800B1012012
:1046200000EB0A01019801EBE07105984144A0EB11
:104630000100A0F101000590E00306D45B4621468D
:10464000179A059800F05FF805441498007820B197
:104650005A461799904705F10105E00323D55B46BB
:104660002146179A059800F04EF805441BE004987F
:10467000002807DBDDE90301884203DD0098405C88
:10468000179901E0179930205A46904704986D1CFD
:10469000401C04900198401E019004D12E205A46DF
:1046A000179990476D1CBAF10001AAF1010ADEDCEE
:1046B00005E017F8010B5A46179990476D1CB8F1A1
:1046C0000001A8F10108F4DC5B462146179A059821
:1046D000A4E600002D0000002B00000020000000D8
:1046E0002DE9F041044600251E461746880405D4EE
:1046F00006E039462020B04705F10105641EF8D5D3
:104700002846BDE8F0812DE9F041044600251E460B
:104710009046C80301D5302700E02027880405D53E
:1047200006E041463846B04705F10105641EF8D55C
:104730002846BDE8F0810A68531C0B601070704772
:104740000000000000000000000000000000000069
:104750000000000000000000000000000000000059
:104760000000000000000000000000000000000049
:1047700000008001800180018001800180018001B2
:104780008001800180018001800180010000000023
:104790008001800100000000000000000000000017
:1047A00000000000CC00CC00CC00CC00CC00CC0041
:1047B00000000000000000000000000000000000F9
:1047C00000000000000000000000000000000000E9
:1047D000000000000000000000000000600C600C01
:1047E000600C30063006FE1FFE1F30063807180327
:1047F000FE1FFE1F180318038C018C018C010000A2
:1048000000008000E003F80F9C0E8C1C8C188C00BC
:104810009800F801E007800E801C8C188C189C18FA
:10482000B80CF00FE00380008000000000000000E2
:104830000000000000000E181B0C110C11061106E0
:10484000110311039B018E01C038C06C60446044A9
:10485000304430441844186C0C380000000000004C
:104860000000E001F0033807180618063003F001D5
:10487000F000F8009C310E33061E061C061C063F95
:10488000FC73F021000000000000000000000000A8
:10489000000000000C000C000C000C000C000C00D0
:1048A0000000000000000000000000000000000008
:1048B00000000000000000000000000000000000F8
:1048C0000000000200038001C000C0006000600022
:1048D0003000300030003000300030003000300058
:1048E00060006000C000C000800100030002000002
:1048F000000020006000C000800180010003000370
:104900000006000600060006000600060006000677
:104910000003000380018001C0006000200000004F
:10492000000000000000000000000000C000C00007
:10493000D806F807E0013003380700000000000047
:104940000000000000000000000000000000000067
:104950000000000000000000000000008001800155
:10496000800180018001FC3FFC3F800180018001CB
:104970008001800100000000000000000000000035
:104980000000000000000000000000000000000027
:104990000000000000000000000000000000000017
:1049A0000000800180010001000180000000000083
:1049B00000000000000000000000000000000000F7
:1049C0000000000000000000E007E0070000000019
:1049D00000000000000000000000000000000000D7
:1049E00000000000000000000000000000000000C7
:1049F00000000000000000000000000000000000B7
:104A00000000C000C0000000000000000000000026
:104A10000000000C000C0006000600060003000366
:104A200000038003800180018001C000C000C0003D
:104A300060006000000000000000000000000000B6
:104A40000000E003F007380E180C0C180C180C18B6
:104A50000C180C180C180C180C180C18180C380E14
:104A6000F007E0030000000000000000000000006C
:104A7000000000018001C001F0019801880180015F
:104A8000800180018001800180018001800180011E
:104A90008001800100000000000000000000000014
:104AA0000000E003F80F180C0C180C180018001880
:104AB000000C000600038001C000600030001800F8
:104AC000FC1FFC1F000000000000000000000000B0
:104AD0000000E001F807180E0C0C0C0C000C00068E
:104AE000C003C007000C001800180C180C18180C94
:104AF000F807E003000000000000000000000000D4
:104B00000000000C000E000F000F800DC00C600CA8
:104B1000600C300C180C0C0CFC3FFC3F000C000C23
:104B2000000C000C0000000000000000000000006D
:104B30000000F80FF80F180018000C00EC03FC0739
:104B40001C0E001C0018001800180C181C0C180E65
:104B5000F807E00300000000000000000000000073
:104B60000000C007F00F381C181818000C00CC0308
:104B7000EC0F3C0E1C1C0C180C180C18181C380ED2
:104B8000F007E0030000000000000000000000004B
:104B90000000FC1FFC1F000C000600060003800341
:104BA0008001C001C000E0006000600070003000C3
:104BB0003000300000000000000000000000000095
:104BC0000000E003F007380E180C180C180C38061B
:104BD000F007F007180C0C180C180C180C18380CEF
:104BE000F80FE003000000000000000000000000DB
:104BF0000000E003F007380E1C0C0C180C180C1801
:104C00001C1C381EF81BE0190018000C000C1C0EB0
:104C1000F807F001000000000000000000000000A4
:104C20000000000000000000000000008001800182
:104C30000000000000000000000000000000000074
:104C40008001800100000000000000000000000062
:104C50000000000000000000000000008001800152
:104C60000000000000000000000000000000000044
:104C700080018001000100018000000000000000B0
:104C80000000000000000000000000000000000024
:104C90000010001C800FE003F8001800F800E0038B
:104CA000800F001C00100000000000000000000049
:104CB00000000000000000000000000000000000F4
:104CC000F81F000000000000F81F000000000000B6
:104CD00000000000000000000000000000000000D4
:104CE00000000000000000000000000000000000C4
:104CF00008003800F001C007001F0018001FC0079F
:104D0000F001380008000000000000000000000072
:104D10000000E003F80F180C0C180C180018000C19
:104D2000000600038001C000C000C00000000000B9
:104D3000C000C000000000000000000000000000F3
:104D400000000000E00718180420C229224A11447C
:104D500009440944094409221113E20C02400420C9
:104D60001818E0070000000000000000000000002C
:104D7000000080038003C006C006C006600C600C03
:104D8000301830183018F83FF83F1C700C600C6079
:104D900006C006C000000000000000000000000087
:104DA0000000FC03FC0F0C0C0C180C180C180C0C5D
:104DB000FC07FC0F0C180C300C300C300C300C18AD
:104DC000FC1FFC07000000000000000000000000C5
:104DD0000000C007F01F38381C300C700660060059
:104DE0000600060006000600060006600C701C3077
:104DF000F01FE007000000000000000000000000BD
:104E00000000FE03FE0F060E0618061806300630D8
:104E10000630063006300630063006180618060E34
:104E2000FE0FFE0300000000000000000000000074
:104E30000000FC3FFC3F0C000C000C000C000C00C0
:104E4000FC1FFC1F0C000C000C000C000C000C00E4
:104E5000FC3FFC3F000000000000000000000000DC
:104E60000000F83FF83F180018001800180018005C
:104E7000F81FF81F18001800180018001800180074
:104E800018001800000000000000000000000000F2
:104E90000000E00FF83F3C780E6006E007C003001A
:104EA000030003FE03FE03C007C006C00EC03CF0B3
:104EB000F83FE00F000000000000000000000000CC
:104EC00000000C300C300C300C300C300C300C303E
:104ED000FC3FFC3F0C300C300C300C300C300C30F4
:104EE0000C300C300000000000000000000000004A
:104EF000000080018001800180018001800180012B
:104F00008001800180018001800180018001800199
:104F1000800180010000000000000000000000008F
:104F20000000000600060006000600060006000657
:104F300000060006000600060006180618063807D8
:104F4000F003E0010000000000000000000000008D
:104F5000000006300618060C060606038601C60089
:104F600066007600DE008E0106030606060C0618B3
:104F70000630066000000000000000000000000095
:104F80000000180018001800180018001800180079
:104F90001800180018001800180018001800180051
:104FA000F81FF81F000000000000000000000000D3
:104FB00000000EE01EF01EF01EF036D836D836D8AF
:104FC00036D866CC66CC66CCC6C6C6C6C6C6C6C60D
:104FD00086C386C30000000000000000000000003F
:104FE00000000C301C303C303C306C306C30CC302D
:104FF000CC308C310C330C330C360C360C3C0C3C66
:105000000C380C3000000000000000000000000020
:105010000000E007F81F1C380E70066003C003C0D4
:1050200003C003C003C003C003C006600E701C3879
:10503000F81FE00700000000000000000000000072
:105040000000FC0FFC1F0C380C300C300C300C3006
:105050000C18FC1FFC070C000C000C000C000C00D2
:105060000C000C0000000000000000000000000028
:105070000000E007F81F1C380E70066003E003C054
:1050800003C003C003C003C007E006630E3F1C3C1F
:10509000F83FE0F700C00000000000000000000042
:1050A0000000FE0FFE1F06380630063006300638B8
:1050B000FE1FFE0706030606060C06180618063035
:1050C0000630066000000000000000000000000044
:1050D0000000E003F80F1C0C0C180C180C001C004E
:1050E000F803E00F001E0038063006300E301C1C9E
:1050F000F80FE007000000000000000000000000C2
:105100000000FE7FFE7F8001800180018001800120
:105110008001800180018001800180018001800187
:10512000800180010000000000000000000000007D
:1051300000000C300C300C300C300C300C300C30CB
:105140000C300C300C300C300C300C300C3018188B
:10515000F81FE00700000000000000000000000051
:10516000000003600630063006300C180C180C18CE
:10517000180C180C380E30063006700760036003F8
:10518000C001C0010000000000000000000000009D
:1051900000000360C361C361C36166336633663375
:1051A0006633663366336C1B6C1B6C1B2C1A3C1EFF
:1051B000380E380E00000000000000000000000063
:1051C00000000FE00C7018303018700C600EC00733
:1051D00080038003C003E006700C301C18180C30EC
:1051E0000E6007E00000000000000000000000006A
:1051F000000003C006600C301C383818300C600604
:10520000E007C003800180018001800180018001EE
:10521000800180010000000000000000000000008C
:105220000000FC7FFC7F006000300018000C0006CE
:1052300000038001C0006000300018000C00060070
:10524000FE7FFE7F00000000000000000000000064
:105250000000E003E00360006000600060006000A8
:10526000600060006000600060006000600060003E
:1052700060006000600060006000E003E003000088
:10528000000030003000600060006000C000C0001E
:10529000C000C00180018001800100030003000301
:1052A00000060006000000000000000000000000F2
:1052B0000000E003E0030003000300030003000319
:1052C00000030003000300030003000300030003C6
:1052D00000030003000300030003E003E0030000F9
:1052E00000000000C001C0016003600360033006DD
:1052F0003006180C180C0000000000000000000030
:10530000000000000000000000000000000000009D
:10531000000000000000000000000000000000008D
:10532000000000000000000000000000000000007D
:105330000000FFFFFFFF0000000000000000000071
:1053400000000C000C000C000C000C000C00000015
:10535000000000000000000000000000000000004D
:10536000000000000000000000000000000000003D
:10537000000000000000000000000000F003F8073B
:105380001C0C0C0C000FF00FF80C0C0C0C0C1C0F70
:10539000F80FF018000000000000000000000000FE
:1053A000000018001800180018001800D803F80FA3
:1053B000380C181818181818181818181818380C45
:1053C000F80FD803000000000000000000000000FB
:1053D000000000000000000000000000C003F00713
:1053E000300E180C1800180018001800180C300E99
:1053F000F007C003000000000000000000000000F3
:10540000000000180018001800180018C01BF01F3A
:10541000301C181818181818181818181818301CD4
:10542000F01FC01B00000000000000000000000092
:10543000000000000000000000000000C003F00FAA
:10544000300C1818F81FF81F180018003818301CF6
:10545000F00FC00700000000000000000000000086
:105460000000800FC00FC000C000C000F007F007B0
:10547000C000C000C000C000C000C000C000C0002C
:10548000C000C0000000000000000000000000009C
:10549000000000000000000000000000E00DF80F18
:1054A000180E0C0C0C0C0C0C0C0C0C0C0C0C180E20
:1054B000F80FE00D000C0C0C1C06F807F0010000C2
:1054C000000018001800180018001800D807F80F7E
:1054D000381C181818181818181818181818181828
:1054E000181818180000000000000000000000005C
:1054F0000000C000C000000000000000C000C000AC
:10550000C000C000C000C000C000C000C000C0009B
:10551000C000C0000000000000000000000000000B
:105520000000C000C000000000000000C000C0007B
:10553000C000C000C000C000C000C000C000C0006B
:10554000C000C000C000C000C000F800780000002B
:1055500000000C000C000C000C000C000C0C0C06E5
:105560000C038C01CC006C00FC009C018C030C0330
:105570000C060C0C00000000000000000000000001
:105580000000C000C000C000C000C000C000C000DB
:10559000C000C000C000C000C000C000C000C0000B
:1055A000C000C0000000000000000000000000007B
:1055B0000000000000000000000000007C3CFF7EB6
:1055C000C7E383C183C183C183C183C183C183C155
:1055D00083C183C100000000000000000000000043
:1055E0000000000000000000000000009807F80F15
:1055F000381C181818181818181818181818181807
:10560000181818180000000000000000000000003A
:10561000000000000000000000000000C003F00FC8
:10562000300C181818181818181818181818300CE2
:10563000F00FC003000000000000000000000000A8
:10564000000000000000000000000000D803F80F78
:10565000380C181818181818181818181818380CA2
:10566000F80FD803180018001800180018000000E0
:10567000000000000000000000000000C01BF01F40
:10568000301C181818181818181818181818301C62
:10569000F01FC01B001800180018001800180000A8
:1056A000000000000000000000000000B007F00350
:1056B000700030003000300030003000300030002A
:1056C000300030000000000000000000000000007A
:1056D000000000000000000000000000E003F003F4
:1056E000380E180C3800F003C007000C180C380EE8
:1056F000F007E003000000000000000000000000D0
:10570000000000008000C000C000C000F007F007EB
:10571000C000C000C000C000C000C000C000C00089
:10572000C00780070000000000000000000000002B
:105730000000000000000000000000001818181809
:105740001818181818181818181818181818381CB5
:10575000F01FE01900000000000000000000000041
:105760000000000000000000000000000C18180CF1
:10577000180C180C30063006300660036003600316
:10578000C001C00100000000000000000000000097
:10579000000000000000000000000000C141C14105
:1057A000C3616363636363633636363636361C1C07
:1057B0001C1C1C1C00000000000000000000000079
:1057C0000000000000000000000000001C38381C31
:1057D000300C600660036003600360036006300CF9
:1057E000381C1C3800000000000000000000000011
:1057F0000000000000000000000000001830301819
:1058000030187018600C600CE00CC006C0068003F5
:105810008003800380018001C001F000700000005F
:10582000000000000000000000000000FC1FFC1F42
:10583000000C000600038001C0006000300018006A
:10584000FC1FFC1F00000000000000000000000022
:10585000000000038001C000C000C000C000C00004
:10586000C00060006000300060004000C000C00068
:10587000C000C000C000C0008001000300000000A4
:105880000000800180018001800180018001800191
:105890008001800180018001800180018001800100
:1058A0008001800180018001800180018001000071
:1058B00000006000C000C001800180018001800103
:1058C0008001000300030006000300018001800145
:1058D0008001800180018001C000600000000000A4
:1058E00000000000000000000000000000000000B8
:1058F000F010F81F080F000000000000000000007A
:105900000000000000000000000000000000000097
:10591000305900080000002040000000743E0008DC
:10592000705900084000002028040000843E000850
:1059300014000000000000000000000000A24A0463
:10594000000000000000000001020304060708092F
:105950000000FFFF0000000000000102030401023C
:1059600003040607080902040608000000000000FE
:04000005080000ED02
:00000001FF
